{
  "contractName": "AstralAnima",
  "abi": [
    {
      "inputs": [
        {
          "internalType": "address",
          "name": "_journeyAddr",
          "type": "address"
        }
      ],
      "stateMutability": "nonpayable",
      "type": "constructor"
    },
    {
      "anonymous": false,
      "inputs": [
        {
          "indexed": true,
          "internalType": "address",
          "name": "owner",
          "type": "address"
        },
        {
          "indexed": true,
          "internalType": "address",
          "name": "approved",
          "type": "address"
        },
        {
          "indexed": true,
          "internalType": "uint256",
          "name": "tokenId",
          "type": "uint256"
        }
      ],
      "name": "Approval",
      "type": "event"
    },
    {
      "anonymous": false,
      "inputs": [
        {
          "indexed": true,
          "internalType": "address",
          "name": "owner",
          "type": "address"
        },
        {
          "indexed": true,
          "internalType": "address",
          "name": "operator",
          "type": "address"
        },
        {
          "indexed": false,
          "internalType": "bool",
          "name": "approved",
          "type": "bool"
        }
      ],
      "name": "ApprovalForAll",
      "type": "event"
    },
    {
      "anonymous": false,
      "inputs": [
        {
          "indexed": true,
          "internalType": "address",
          "name": "previousOwner",
          "type": "address"
        },
        {
          "indexed": true,
          "internalType": "address",
          "name": "newOwner",
          "type": "address"
        }
      ],
      "name": "OwnershipTransferred",
      "type": "event"
    },
    {
      "anonymous": false,
      "inputs": [
        {
          "indexed": true,
          "internalType": "address",
          "name": "from",
          "type": "address"
        },
        {
          "indexed": true,
          "internalType": "address",
          "name": "to",
          "type": "address"
        },
        {
          "indexed": true,
          "internalType": "uint256",
          "name": "tokenId",
          "type": "uint256"
        }
      ],
      "name": "Transfer",
      "type": "event"
    },
    {
      "inputs": [],
      "name": "PROVENANCE",
      "outputs": [
        {
          "internalType": "string",
          "name": "",
          "type": "string"
        }
      ],
      "stateMutability": "view",
      "type": "function",
      "constant": true
    },
    {
      "inputs": [
        {
          "internalType": "address",
          "name": "to",
          "type": "address"
        },
        {
          "internalType": "uint256",
          "name": "tokenId",
          "type": "uint256"
        }
      ],
      "name": "approve",
      "outputs": [],
      "stateMutability": "nonpayable",
      "type": "function"
    },
    {
      "inputs": [
        {
          "internalType": "address",
          "name": "owner",
          "type": "address"
        }
      ],
      "name": "balanceOf",
      "outputs": [
        {
          "internalType": "uint256",
          "name": "",
          "type": "uint256"
        }
      ],
      "stateMutability": "view",
      "type": "function",
      "constant": true
    },
    {
      "inputs": [],
      "name": "baseURI",
      "outputs": [
        {
          "internalType": "string",
          "name": "",
          "type": "string"
        }
      ],
      "stateMutability": "view",
      "type": "function",
      "constant": true
    },
    {
      "inputs": [],
      "name": "discountPrice",
      "outputs": [
        {
          "internalType": "uint256",
          "name": "",
          "type": "uint256"
        }
      ],
      "stateMutability": "view",
      "type": "function",
      "constant": true
    },
    {
      "inputs": [
        {
          "internalType": "uint256",
          "name": "tokenId",
          "type": "uint256"
        }
      ],
      "name": "getApproved",
      "outputs": [
        {
          "internalType": "address",
          "name": "",
          "type": "address"
        }
      ],
      "stateMutability": "view",
      "type": "function",
      "constant": true
    },
    {
      "inputs": [
        {
          "internalType": "address",
          "name": "owner",
          "type": "address"
        },
        {
          "internalType": "address",
          "name": "operator",
          "type": "address"
        }
      ],
      "name": "isApprovedForAll",
      "outputs": [
        {
          "internalType": "bool",
          "name": "",
          "type": "bool"
        }
      ],
      "stateMutability": "view",
      "type": "function",
      "constant": true
    },
    {
      "inputs": [],
      "name": "lastId",
      "outputs": [
        {
          "internalType": "uint256",
          "name": "",
          "type": "uint256"
        }
      ],
      "stateMutability": "view",
      "type": "function",
      "constant": true
    },
    {
      "inputs": [
        {
          "internalType": "address",
          "name": "",
          "type": "address"
        }
      ],
      "name": "lordsDiscountCollected",
      "outputs": [
        {
          "internalType": "bool",
          "name": "",
          "type": "bool"
        }
      ],
      "stateMutability": "view",
      "type": "function",
      "constant": true
    },
    {
      "inputs": [],
      "name": "maxSupply",
      "outputs": [
        {
          "internalType": "uint256",
          "name": "",
          "type": "uint256"
        }
      ],
      "stateMutability": "view",
      "type": "function",
      "constant": true
    },
    {
      "inputs": [],
      "name": "name",
      "outputs": [
        {
          "internalType": "string",
          "name": "",
          "type": "string"
        }
      ],
      "stateMutability": "view",
      "type": "function",
      "constant": true
    },
    {
      "inputs": [],
      "name": "owner",
      "outputs": [
        {
          "internalType": "address",
          "name": "",
          "type": "address"
        }
      ],
      "stateMutability": "view",
      "type": "function",
      "constant": true
    },
    {
      "inputs": [
        {
          "internalType": "uint256",
          "name": "tokenId",
          "type": "uint256"
        }
      ],
      "name": "ownerOf",
      "outputs": [
        {
          "internalType": "address",
          "name": "",
          "type": "address"
        }
      ],
      "stateMutability": "view",
      "type": "function",
      "constant": true
    },
    {
      "inputs": [],
      "name": "publicPrice",
      "outputs": [
        {
          "internalType": "uint256",
          "name": "",
          "type": "uint256"
        }
      ],
      "stateMutability": "view",
      "type": "function",
      "constant": true
    },
    {
      "inputs": [],
      "name": "renounceOwnership",
      "outputs": [],
      "stateMutability": "nonpayable",
      "type": "function"
    },
    {
      "inputs": [
        {
          "internalType": "address",
          "name": "from",
          "type": "address"
        },
        {
          "internalType": "address",
          "name": "to",
          "type": "address"
        },
        {
          "internalType": "uint256",
          "name": "tokenId",
          "type": "uint256"
        }
      ],
      "name": "safeTransferFrom",
      "outputs": [],
      "stateMutability": "nonpayable",
      "type": "function"
    },
    {
      "inputs": [
        {
          "internalType": "address",
          "name": "from",
          "type": "address"
        },
        {
          "internalType": "address",
          "name": "to",
          "type": "address"
        },
        {
          "internalType": "uint256",
          "name": "tokenId",
          "type": "uint256"
        },
        {
          "internalType": "bytes",
          "name": "_data",
          "type": "bytes"
        }
      ],
      "name": "safeTransferFrom",
      "outputs": [],
      "stateMutability": "nonpayable",
      "type": "function"
    },
    {
      "inputs": [
        {
          "internalType": "address",
          "name": "operator",
          "type": "address"
        },
        {
          "internalType": "bool",
          "name": "approved",
          "type": "bool"
        }
      ],
      "name": "setApprovalForAll",
      "outputs": [],
      "stateMutability": "nonpayable",
      "type": "function"
    },
    {
      "inputs": [
        {
          "internalType": "bytes4",
          "name": "interfaceId",
          "type": "bytes4"
        }
      ],
      "name": "supportsInterface",
      "outputs": [
        {
          "internalType": "bool",
          "name": "",
          "type": "bool"
        }
      ],
      "stateMutability": "view",
      "type": "function",
      "constant": true
    },
    {
      "inputs": [],
      "name": "symbol",
      "outputs": [
        {
          "internalType": "string",
          "name": "",
          "type": "string"
        }
      ],
      "stateMutability": "view",
      "type": "function",
      "constant": true
    },
    {
      "inputs": [
        {
          "internalType": "uint256",
          "name": "index",
          "type": "uint256"
        }
      ],
      "name": "tokenByIndex",
      "outputs": [
        {
          "internalType": "uint256",
          "name": "",
          "type": "uint256"
        }
      ],
      "stateMutability": "view",
      "type": "function",
      "constant": true
    },
    {
      "inputs": [
        {
          "internalType": "address",
          "name": "owner",
          "type": "address"
        },
        {
          "internalType": "uint256",
          "name": "index",
          "type": "uint256"
        }
      ],
      "name": "tokenOfOwnerByIndex",
      "outputs": [
        {
          "internalType": "uint256",
          "name": "",
          "type": "uint256"
        }
      ],
      "stateMutability": "view",
      "type": "function",
      "constant": true
    },
    {
      "inputs": [
        {
          "internalType": "uint256",
          "name": "tokenId",
          "type": "uint256"
        }
      ],
      "name": "tokenURI",
      "outputs": [
        {
          "internalType": "string",
          "name": "",
          "type": "string"
        }
      ],
      "stateMutability": "view",
      "type": "function",
      "constant": true
    },
    {
      "inputs": [],
      "name": "totalSupply",
      "outputs": [
        {
          "internalType": "uint256",
          "name": "",
          "type": "uint256"
        }
      ],
      "stateMutability": "view",
      "type": "function",
      "constant": true
    },
    {
      "inputs": [
        {
          "internalType": "address",
          "name": "from",
          "type": "address"
        },
        {
          "internalType": "address",
          "name": "to",
          "type": "address"
        },
        {
          "internalType": "uint256",
          "name": "tokenId",
          "type": "uint256"
        }
      ],
      "name": "transferFrom",
      "outputs": [],
      "stateMutability": "nonpayable",
      "type": "function"
    },
    {
      "inputs": [
        {
          "internalType": "address",
          "name": "newOwner",
          "type": "address"
        }
      ],
      "name": "transferOwnership",
      "outputs": [],
      "stateMutability": "nonpayable",
      "type": "function"
    },
    {
      "inputs": [],
      "name": "withdraw",
      "outputs": [],
      "stateMutability": "nonpayable",
      "type": "function"
    },
    {
      "inputs": [],
      "name": "deposit",
      "outputs": [],
      "stateMutability": "payable",
      "type": "function",
      "payable": true
    },
    {
      "inputs": [
        {
          "internalType": "uint256",
          "name": "_discountPrice",
          "type": "uint256"
        }
      ],
      "name": "setDiscountPrice",
      "outputs": [],
      "stateMutability": "nonpayable",
      "type": "function"
    },
    {
      "inputs": [
        {
          "internalType": "uint256",
          "name": "_newPrice",
          "type": "uint256"
        }
      ],
      "name": "setPublicPrice",
      "outputs": [],
      "stateMutability": "nonpayable",
      "type": "function"
    },
    {
      "inputs": [
        {
          "internalType": "uint256",
          "name": "_newMax",
          "type": "uint256"
        }
      ],
      "name": "setMaxSupply",
      "outputs": [],
      "stateMutability": "nonpayable",
      "type": "function"
    },
    {
      "inputs": [
        {
          "internalType": "uint256",
          "name": "_newLastId",
          "type": "uint256"
        }
      ],
      "name": "setLastId",
      "outputs": [],
      "stateMutability": "nonpayable",
      "type": "function"
    },
    {
      "inputs": [
        {
          "internalType": "string",
          "name": "_newBaseURI",
          "type": "string"
        }
      ],
      "name": "setBaseURI",
      "outputs": [],
      "stateMutability": "nonpayable",
      "type": "function"
    },
    {
      "inputs": [
        {
          "internalType": "string",
          "name": "_prov",
          "type": "string"
        }
      ],
      "name": "setProvenance",
      "outputs": [],
      "stateMutability": "nonpayable",
      "type": "function"
    },
    {
      "inputs": [],
      "name": "mintFromJourney",
      "outputs": [],
      "stateMutability": "payable",
      "type": "function",
      "payable": true
    },
    {
      "inputs": [],
      "name": "mintPublic",
      "outputs": [],
      "stateMutability": "payable",
      "type": "function",
      "payable": true
    },
    {
      "inputs": [
        {
          "internalType": "uint256",
          "name": "_amount",
          "type": "uint256"
        }
      ],
      "name": "multiMint",
      "outputs": [],
      "stateMutability": "payable",
      "type": "function",
      "payable": true
    },
    {
      "inputs": [
        {
          "internalType": "address",
          "name": "_receiver",
          "type": "address"
        },
        {
          "internalType": "uint256",
          "name": "_tokenId",
          "type": "uint256"
        }
      ],
      "name": "mintTo",
      "outputs": [],
      "stateMutability": "nonpayable",
      "type": "function"
    }
  ],
  "bytecode": "0x608060405260405180602001604052806000815250600e90805190602001906200002b9291906200025f565b506000600f556102bc60105566f8b0a10e470000601155670214e8348c4f00006012553480156200005b57600080fd5b5060405162004bb938038062004bb9833981810160405281019062000081919062000379565b6040518060400160405280600c81526020017f41737472616c20416e696d6100000000000000000000000000000000000000008152506040518060400160405280600b81526020017f41737472616c416e696d610000000000000000000000000000000000000000008152508160009080519060200190620001059291906200025f565b5080600190805190602001906200011e9291906200025f565b5050506001600a81905550620001496200013d6200019160201b60201c565b6200019960201b60201c565b80600d60006101000a81548173ffffffffffffffffffffffffffffffffffffffff021916908373ffffffffffffffffffffffffffffffffffffffff160217905550506200040f565b600033905090565b6000600b60009054906101000a900473ffffffffffffffffffffffffffffffffffffffff16905081600b60006101000a81548173ffffffffffffffffffffffffffffffffffffffff021916908373ffffffffffffffffffffffffffffffffffffffff1602179055508173ffffffffffffffffffffffffffffffffffffffff168173ffffffffffffffffffffffffffffffffffffffff167f8be0079c531659141344cd1fd0a4f28419497f9722a3daafe3b4186f6b6457e060405160405180910390a35050565b8280546200026d90620003da565b90600052602060002090601f016020900481019282620002915760008555620002dd565b82601f10620002ac57805160ff1916838001178555620002dd565b82800160010185558215620002dd579182015b82811115620002dc578251825591602001919060010190620002bf565b5b509050620002ec9190620002f0565b5090565b5b808211156200030b576000816000905550600101620002f1565b5090565b600080fd5b600073ffffffffffffffffffffffffffffffffffffffff82169050919050565b6000620003418262000314565b9050919050565b620003538162000334565b81146200035f57600080fd5b50565b600081519050620003738162000348565b92915050565b6000602082840312156200039257620003916200030f565b5b6000620003a28482850162000362565b91505092915050565b7f4e487b7100000000000000000000000000000000000000000000000000000000600052602260045260246000fd5b60006002820490506001821680620003f357607f821691505b602082108103620004095762000408620003ab565b5b50919050565b61479a806200041f6000396000f3fe6080604052600436106102255760003560e01c8063715018a611610123578063b88d4fde116100ab578063d5abeb011161006f578063d5abeb01146107b6578063d7ea51fd146107e1578063e985e9c5146107eb578063f2fde38b14610828578063ffe630b51461085157610225565b8063b88d4fde146106f2578063c1292cc31461071b578063c627525514610746578063c87b56dd1461076f578063d0e30db0146107ac57610225565b80638da5cb5b116100f25780638da5cb5b1461062c57806395d89b4114610657578063a22cb46514610682578063a945bf80146106ab578063ab00492f146106d657610225565b8063715018a6146105b757806384ad8e8f146105ce5780638b78c116146105f95780638c874ebd1461062257610225565b80633e1e5a8a116101b15780636352211e116101755780636352211e146104be5780636373a6b1146104fb5780636c0360eb146105265780636f8b44b01461055157806370a082311461057a57610225565b80633e1e5a8a146103c957806342842e0e14610406578063449a52f81461042f5780634f6ccce71461045857806355f804b31461049557610225565b806318160ddd116101f857806318160ddd146102f85780631a27e85f1461032357806323b872dd1461034c5780632f745c59146103755780633ccfd60b146103b257610225565b806301ffc9a71461022a57806306fdde0314610267578063081812fc14610292578063095ea7b3146102cf575b600080fd5b34801561023657600080fd5b50610251600480360381019061024c919061312c565b61087a565b60405161025e9190613174565b60405180910390f35b34801561027357600080fd5b5061027c6108f4565b6040516102899190613228565b60405180910390f35b34801561029e57600080fd5b506102b960048036038101906102b49190613280565b610986565b6040516102c691906132ee565b60405180910390f35b3480156102db57600080fd5b506102f660048036038101906102f19190613335565b610a0b565b005b34801561030457600080fd5b5061030d610b22565b60405161031a9190613384565b60405180910390f35b34801561032f57600080fd5b5061034a60048036038101906103459190613280565b610b2f565b005b34801561035857600080fd5b50610373600480360381019061036e919061339f565b610bb5565b005b34801561038157600080fd5b5061039c60048036038101906103979190613335565b610c15565b6040516103a99190613384565b60405180910390f35b3480156103be57600080fd5b506103c7610cba565b005b3480156103d557600080fd5b506103f060048036038101906103eb91906133f2565b610d85565b6040516103fd9190613174565b60405180910390f35b34801561041257600080fd5b5061042d6004803603810190610428919061339f565b610da5565b005b34801561043b57600080fd5b5061045660048036038101906104519190613335565b610dc5565b005b34801561046457600080fd5b5061047f600480360381019061047a9190613280565b610e4f565b60405161048c9190613384565b60405180910390f35b3480156104a157600080fd5b506104bc60048036038101906104b79190613554565b610ec0565b005b3480156104ca57600080fd5b506104e560048036038101906104e09190613280565b610f56565b6040516104f291906132ee565b60405180910390f35b34801561050757600080fd5b50610510611007565b60405161051d9190613228565b60405180910390f35b34801561053257600080fd5b5061053b611095565b6040516105489190613228565b60405180910390f35b34801561055d57600080fd5b5061057860048036038101906105739190613280565b611123565b005b34801561058657600080fd5b506105a1600480360381019061059c91906133f2565b6111a9565b6040516105ae9190613384565b60405180910390f35b3480156105c357600080fd5b506105cc611260565b005b3480156105da57600080fd5b506105e36112e8565b6040516105f09190613384565b60405180910390f35b34801561060557600080fd5b50610620600480360381019061061b9190613280565b6112ee565b005b61062a611374565b005b34801561063857600080fd5b50610641611486565b60405161064e91906132ee565b60405180910390f35b34801561066357600080fd5b5061066c6114b0565b6040516106799190613228565b60405180910390f35b34801561068e57600080fd5b506106a960048036038101906106a491906135c9565b611542565b005b3480156106b757600080fd5b506106c0611558565b6040516106cd9190613384565b60405180910390f35b6106f060048036038101906106eb9190613280565b61155e565b005b3480156106fe57600080fd5b50610719600480360381019061071491906136aa565b6116b3565b005b34801561072757600080fd5b50610730611715565b60405161073d9190613384565b60405180910390f35b34801561075257600080fd5b5061076d60048036038101906107689190613280565b61171b565b005b34801561077b57600080fd5b5061079660048036038101906107919190613280565b6117a1565b6040516107a39190613228565b60405180910390f35b6107b4611848565b005b3480156107c257600080fd5b506107cb6118c6565b6040516107d89190613384565b60405180910390f35b6107e96118cc565b005b3480156107f757600080fd5b50610812600480360381019061080d919061372d565b611ba1565b60405161081f9190613174565b60405180910390f35b34801561083457600080fd5b5061084f600480360381019061084a91906133f2565b611c35565b005b34801561085d57600080fd5b5061087860048036038101906108739190613554565b611d2c565b005b60007f780e9d63000000000000000000000000000000000000000000000000000000007bffffffffffffffffffffffffffffffffffffffffffffffffffffffff1916827bffffffffffffffffffffffffffffffffffffffffffffffffffffffff191614806108ed57506108ec82611dc2565b5b9050919050565b6060600080546109039061379c565b80601f016020809104026020016040519081016040528092919081815260200182805461092f9061379c565b801561097c5780601f106109515761010080835404028352916020019161097c565b820191906000526020600020905b81548152906001019060200180831161095f57829003601f168201915b5050505050905090565b600061099182611ea4565b6109d0576040517f08c379a00000000000000000000000000000000000000000000000000000000081526004016109c79061383f565b60405180910390fd5b6004600083815260200190815260200160002060009054906101000a900473ffffffffffffffffffffffffffffffffffffffff169050919050565b6000610a1682610f56565b90508073ffffffffffffffffffffffffffffffffffffffff168373ffffffffffffffffffffffffffffffffffffffff1603610a86576040517f08c379a0000000000000000000000000000000000000000000000000000000008152600401610a7d906138d1565b60405180910390fd5b8073ffffffffffffffffffffffffffffffffffffffff16610aa5611f10565b73ffffffffffffffffffffffffffffffffffffffff161480610ad45750610ad381610ace611f10565b611ba1565b5b610b13576040517f08c379a0000000000000000000000000000000000000000000000000000000008152600401610b0a90613963565b60405180910390fd5b610b1d8383611f18565b505050565b6000600880549050905090565b610b37611f10565b73ffffffffffffffffffffffffffffffffffffffff16610b55611486565b73ffffffffffffffffffffffffffffffffffffffff1614610bab576040517f08c379a0000000000000000000000000000000000000000000000000000000008152600401610ba2906139cf565b60405180910390fd5b80600f8190555050565b610bc6610bc0611f10565b82611fd1565b610c05576040517f08c379a0000000000000000000000000000000000000000000000000000000008152600401610bfc90613a61565b60405180910390fd5b610c108383836120af565b505050565b6000610c20836111a9565b8210610c61576040517f08c379a0000000000000000000000000000000000000000000000000000000008152600401610c5890613af3565b60405180910390fd5b600660008473ffffffffffffffffffffffffffffffffffffffff1673ffffffffffffffffffffffffffffffffffffffff168152602001908152602001600020600083815260200190815260200160002054905092915050565b610cc2611f10565b73ffffffffffffffffffffffffffffffffffffffff16610ce0611486565b73ffffffffffffffffffffffffffffffffffffffff1614610d36576040517f08c379a0000000000000000000000000000000000000000000000000000000008152600401610d2d906139cf565b60405180910390fd5b60004790503373ffffffffffffffffffffffffffffffffffffffff166108fc829081150290604051600060405180830381858888f19350505050158015610d81573d6000803e3d6000fd5b5050565b60136020528060005260406000206000915054906101000a900460ff1681565b610dc0838383604051806020016040528060008152506116b3565b505050565b610dcd611f10565b73ffffffffffffffffffffffffffffffffffffffff16610deb611486565b73ffffffffffffffffffffffffffffffffffffffff1614610e41576040517f08c379a0000000000000000000000000000000000000000000000000000000008152600401610e38906139cf565b60405180910390fd5b610e4b8282612315565b5050565b6000610e59610b22565b8210610e9a576040517f08c379a0000000000000000000000000000000000000000000000000000000008152600401610e9190613b85565b60405180910390fd5b60088281548110610eae57610ead613ba5565b5b90600052602060002001549050919050565b610ec8611f10565b73ffffffffffffffffffffffffffffffffffffffff16610ee6611486565b73ffffffffffffffffffffffffffffffffffffffff1614610f3c576040517f08c379a0000000000000000000000000000000000000000000000000000000008152600401610f33906139cf565b60405180910390fd5b80600c9080519060200190610f5292919061301d565b5050565b6000806002600084815260200190815260200160002060009054906101000a900473ffffffffffffffffffffffffffffffffffffffff169050600073ffffffffffffffffffffffffffffffffffffffff168173ffffffffffffffffffffffffffffffffffffffff1603610ffe576040517f08c379a0000000000000000000000000000000000000000000000000000000008152600401610ff590613c46565b60405180910390fd5b80915050919050565b600e80546110149061379c565b80601f01602080910402602001604051908101604052809291908181526020018280546110409061379c565b801561108d5780601f106110625761010080835404028352916020019161108d565b820191906000526020600020905b81548152906001019060200180831161107057829003601f168201915b505050505081565b600c80546110a29061379c565b80601f01602080910402602001604051908101604052809291908181526020018280546110ce9061379c565b801561111b5780601f106110f05761010080835404028352916020019161111b565b820191906000526020600020905b8154815290600101906020018083116110fe57829003601f168201915b505050505081565b61112b611f10565b73ffffffffffffffffffffffffffffffffffffffff16611149611486565b73ffffffffffffffffffffffffffffffffffffffff161461119f576040517f08c379a0000000000000000000000000000000000000000000000000000000008152600401611196906139cf565b60405180910390fd5b8060108190555050565b60008073ffffffffffffffffffffffffffffffffffffffff168273ffffffffffffffffffffffffffffffffffffffff1603611219576040517f08c379a000000000000000000000000000000000000000000000000000000000815260040161121090613cd8565b60405180910390fd5b600360008373ffffffffffffffffffffffffffffffffffffffff1673ffffffffffffffffffffffffffffffffffffffff168152602001908152602001600020549050919050565b611268611f10565b73ffffffffffffffffffffffffffffffffffffffff16611286611486565b73ffffffffffffffffffffffffffffffffffffffff16146112dc576040517f08c379a00000000000000000000000000000000000000000000000000000000081526004016112d3906139cf565b60405180910390fd5b6112e66000612333565b565b60115481565b6112f6611f10565b73ffffffffffffffffffffffffffffffffffffffff16611314611486565b73ffffffffffffffffffffffffffffffffffffffff161461136a576040517f08c379a0000000000000000000000000000000000000000000000000000000008152600401611361906139cf565b60405180910390fd5b8060118190555050565b6002600a54036113b9576040517f08c379a00000000000000000000000000000000000000000000000000000000081526004016113b090613d44565b60405180910390fd5b6002600a81905550601054600f5410611407576040517f08c379a00000000000000000000000000000000000000000000000000000000081526004016113fe90613db0565b60405180910390fd5b60125434101561144c576040517f08c379a000000000000000000000000000000000000000000000000000000000815260040161144390613e1c565b60405180910390fd5b611464336001600f5461145f9190613e6b565b612315565b600f600081548092919061147790613ec1565b91905055506001600a81905550565b6000600b60009054906101000a900473ffffffffffffffffffffffffffffffffffffffff16905090565b6060600180546114bf9061379c565b80601f01602080910402602001604051908101604052809291908181526020018280546114eb9061379c565b80156115385780601f1061150d57610100808354040283529160200191611538565b820191906000526020600020905b81548152906001019060200180831161151b57829003601f168201915b5050505050905090565b61155461154d611f10565b83836123f9565b5050565b60125481565b6002600a54036115a3576040517f08c379a000000000000000000000000000000000000000000000000000000000815260040161159a90613d44565b60405180910390fd5b6002600a8190555080600f546010546115bc9190613f09565b10156115fd576040517f08c379a00000000000000000000000000000000000000000000000000000000081526004016115f490613db0565b60405180910390fd5b8060125461160b9190613f3d565b34101561164d576040517f08c379a000000000000000000000000000000000000000000000000000000000815260040161164490613e1c565b60405180910390fd5b60005b8181101561168e5761167b33826001600f5461166c9190613e6b565b6116769190613e6b565b612315565b808061168690613ec1565b915050611650565b5080600f60008282546116a19190613e6b565b925050819055506001600a8190555050565b6116c46116be611f10565b83611fd1565b611703576040517f08c379a00000000000000000000000000000000000000000000000000000000081526004016116fa90613a61565b60405180910390fd5b61170f84848484612565565b50505050565b600f5481565b611723611f10565b73ffffffffffffffffffffffffffffffffffffffff16611741611486565b73ffffffffffffffffffffffffffffffffffffffff1614611797576040517f08c379a000000000000000000000000000000000000000000000000000000000815260040161178e906139cf565b60405180910390fd5b8060128190555050565b60606117ac82611ea4565b6117eb576040517f08c379a00000000000000000000000000000000000000000000000000000000081526004016117e290614009565b60405180910390fd5b60006117f56125c1565b905060008151116118155760405180602001604052806000815250611840565b8061181f84612653565b604051602001611830929190614065565b6040516020818303038152906040525b915050919050565b611850611f10565b73ffffffffffffffffffffffffffffffffffffffff1661186e611486565b73ffffffffffffffffffffffffffffffffffffffff16146118c4576040517f08c379a00000000000000000000000000000000000000000000000000000000081526004016118bb906139cf565b60405180910390fd5b565b60105481565b6002600a5403611911576040517f08c379a000000000000000000000000000000000000000000000000000000000815260040161190890613d44565b60405180910390fd5b6002600a81905550601054600f541061195f576040517f08c379a000000000000000000000000000000000000000000000000000000000815260040161195690613db0565b60405180910390fd5b6000600d60009054906101000a900473ffffffffffffffffffffffffffffffffffffffff1673ffffffffffffffffffffffffffffffffffffffff166393ff8d10336040518263ffffffff1660e01b81526004016119bc91906132ee565b602060405180830381865afa1580156119d9573d6000803e3d6000fd5b505050506040513d601f19601f820116820180604052508101906119fd919061409e565b11611a3d576040517f08c379a0000000000000000000000000000000000000000000000000000000008152600401611a3490614117565b60405180910390fd5b601154341015611a82576040517f08c379a0000000000000000000000000000000000000000000000000000000008152600401611a7990613e1c565b60405180910390fd5b601360003373ffffffffffffffffffffffffffffffffffffffff1673ffffffffffffffffffffffffffffffffffffffff16815260200190815260200160002060009054906101000a900460ff1615611b0f576040517f08c379a0000000000000000000000000000000000000000000000000000000008152600401611b0690614183565b60405180910390fd5b611b27336001600f54611b229190613e6b565b612315565b6001601360003373ffffffffffffffffffffffffffffffffffffffff1673ffffffffffffffffffffffffffffffffffffffff16815260200190815260200160002060006101000a81548160ff021916908315150217905550600f6000815480929190611b9290613ec1565b91905055506001600a81905550565b6000600560008473ffffffffffffffffffffffffffffffffffffffff1673ffffffffffffffffffffffffffffffffffffffff16815260200190815260200160002060008373ffffffffffffffffffffffffffffffffffffffff1673ffffffffffffffffffffffffffffffffffffffff16815260200190815260200160002060009054906101000a900460ff16905092915050565b611c3d611f10565b73ffffffffffffffffffffffffffffffffffffffff16611c5b611486565b73ffffffffffffffffffffffffffffffffffffffff1614611cb1576040517f08c379a0000000000000000000000000000000000000000000000000000000008152600401611ca8906139cf565b60405180910390fd5b600073ffffffffffffffffffffffffffffffffffffffff168173ffffffffffffffffffffffffffffffffffffffff1603611d20576040517f08c379a0000000000000000000000000000000000000000000000000000000008152600401611d1790614215565b60405180910390fd5b611d2981612333565b50565b611d34611f10565b73ffffffffffffffffffffffffffffffffffffffff16611d52611486565b73ffffffffffffffffffffffffffffffffffffffff1614611da8576040517f08c379a0000000000000000000000000000000000000000000000000000000008152600401611d9f906139cf565b60405180910390fd5b80600e9080519060200190611dbe92919061301d565b5050565b60007f80ac58cd000000000000000000000000000000000000000000000000000000007bffffffffffffffffffffffffffffffffffffffffffffffffffffffff1916827bffffffffffffffffffffffffffffffffffffffffffffffffffffffff19161480611e8d57507f5b5e139f000000000000000000000000000000000000000000000000000000007bffffffffffffffffffffffffffffffffffffffffffffffffffffffff1916827bffffffffffffffffffffffffffffffffffffffffffffffffffffffff1916145b80611e9d5750611e9c826127b3565b5b9050919050565b60008073ffffffffffffffffffffffffffffffffffffffff166002600084815260200190815260200160002060009054906101000a900473ffffffffffffffffffffffffffffffffffffffff1673ffffffffffffffffffffffffffffffffffffffff1614159050919050565b600033905090565b816004600083815260200190815260200160002060006101000a81548173ffffffffffffffffffffffffffffffffffffffff021916908373ffffffffffffffffffffffffffffffffffffffff160217905550808273ffffffffffffffffffffffffffffffffffffffff16611f8b83610f56565b73ffffffffffffffffffffffffffffffffffffffff167f8c5be1e5ebec7d5bd14f71427d1e84f3dd0314c0f7b2291e5b200ac8c7c3b92560405160405180910390a45050565b6000611fdc82611ea4565b61201b576040517f08c379a0000000000000000000000000000000000000000000000000000000008152600401612012906142a7565b60405180910390fd5b600061202683610f56565b90508073ffffffffffffffffffffffffffffffffffffffff168473ffffffffffffffffffffffffffffffffffffffff16148061206857506120678185611ba1565b5b806120a657508373ffffffffffffffffffffffffffffffffffffffff1661208e84610986565b73ffffffffffffffffffffffffffffffffffffffff16145b91505092915050565b8273ffffffffffffffffffffffffffffffffffffffff166120cf82610f56565b73ffffffffffffffffffffffffffffffffffffffff1614612125576040517f08c379a000000000000000000000000000000000000000000000000000000000815260040161211c90614339565b60405180910390fd5b600073ffffffffffffffffffffffffffffffffffffffff168273ffffffffffffffffffffffffffffffffffffffff1603612194576040517f08c379a000000000000000000000000000000000000000000000000000000000815260040161218b906143cb565b60405180910390fd5b61219f83838361281d565b6121aa600082611f18565b6001600360008573ffffffffffffffffffffffffffffffffffffffff1673ffffffffffffffffffffffffffffffffffffffff16815260200190815260200160002060008282546121fa9190613f09565b925050819055506001600360008473ffffffffffffffffffffffffffffffffffffffff1673ffffffffffffffffffffffffffffffffffffffff16815260200190815260200160002060008282546122519190613e6b565b92505081905550816002600083815260200190815260200160002060006101000a81548173ffffffffffffffffffffffffffffffffffffffff021916908373ffffffffffffffffffffffffffffffffffffffff160217905550808273ffffffffffffffffffffffffffffffffffffffff168473ffffffffffffffffffffffffffffffffffffffff167fddf252ad1be2c89b69c2b068fc378daa952ba7f163c4a11628f55a4df523b3ef60405160405180910390a461231083838361292f565b505050565b61232f828260405180602001604052806000815250612934565b5050565b6000600b60009054906101000a900473ffffffffffffffffffffffffffffffffffffffff16905081600b60006101000a81548173ffffffffffffffffffffffffffffffffffffffff021916908373ffffffffffffffffffffffffffffffffffffffff1602179055508173ffffffffffffffffffffffffffffffffffffffff168173ffffffffffffffffffffffffffffffffffffffff167f8be0079c531659141344cd1fd0a4f28419497f9722a3daafe3b4186f6b6457e060405160405180910390a35050565b8173ffffffffffffffffffffffffffffffffffffffff168373ffffffffffffffffffffffffffffffffffffffff1603612467576040517f08c379a000000000000000000000000000000000000000000000000000000000815260040161245e90614437565b60405180910390fd5b80600560008573ffffffffffffffffffffffffffffffffffffffff1673ffffffffffffffffffffffffffffffffffffffff16815260200190815260200160002060008473ffffffffffffffffffffffffffffffffffffffff1673ffffffffffffffffffffffffffffffffffffffff16815260200190815260200160002060006101000a81548160ff0219169083151502179055508173ffffffffffffffffffffffffffffffffffffffff168373ffffffffffffffffffffffffffffffffffffffff167f17307eab39ab6107e8899845ad3d59bd9653f200f220920489ca2b5937696c31836040516125589190613174565b60405180910390a3505050565b6125708484846120af565b61257c8484848461298f565b6125bb576040517f08c379a00000000000000000000000000000000000000000000000000000000081526004016125b2906144c9565b60405180910390fd5b50505050565b6060600c80546125d09061379c565b80601f01602080910402602001604051908101604052809291908181526020018280546125fc9061379c565b80156126495780601f1061261e57610100808354040283529160200191612649565b820191906000526020600020905b81548152906001019060200180831161262c57829003601f168201915b5050505050905090565b60606000820361269a576040518060400160405280600181526020017f300000000000000000000000000000000000000000000000000000000000000081525090506127ae565b600082905060005b600082146126cc5780806126b590613ec1565b915050600a826126c59190614518565b91506126a2565b60008167ffffffffffffffff8111156126e8576126e7613429565b5b6040519080825280601f01601f19166020018201604052801561271a5781602001600182028036833780820191505090505b5090505b600085146127a7576001826127339190613f09565b9150600a856127429190614549565b603061274e9190613e6b565b60f81b81838151811061276457612763613ba5565b5b60200101907effffffffffffffffffffffffffffffffffffffffffffffffffffffffffffff1916908160001a905350600a856127a09190614518565b945061271e565b8093505050505b919050565b60007f01ffc9a7000000000000000000000000000000000000000000000000000000007bffffffffffffffffffffffffffffffffffffffffffffffffffffffff1916827bffffffffffffffffffffffffffffffffffffffffffffffffffffffff1916149050919050565b612828838383612b16565b600073ffffffffffffffffffffffffffffffffffffffff168373ffffffffffffffffffffffffffffffffffffffff160361286a5761286581612b1b565b6128a9565b8173ffffffffffffffffffffffffffffffffffffffff168373ffffffffffffffffffffffffffffffffffffffff16146128a8576128a78382612b64565b5b5b600073ffffffffffffffffffffffffffffffffffffffff168273ffffffffffffffffffffffffffffffffffffffff16036128eb576128e681612cd1565b61292a565b8273ffffffffffffffffffffffffffffffffffffffff168273ffffffffffffffffffffffffffffffffffffffff1614612929576129288282612da2565b5b5b505050565b505050565b61293e8383612e21565b61294b600084848461298f565b61298a576040517f08c379a0000000000000000000000000000000000000000000000000000000008152600401612981906144c9565b60405180910390fd5b505050565b60006129b08473ffffffffffffffffffffffffffffffffffffffff16612ffa565b15612b09578373ffffffffffffffffffffffffffffffffffffffff1663150b7a026129d9611f10565b8786866040518563ffffffff1660e01b81526004016129fb94939291906145cf565b6020604051808303816000875af1925050508015612a3757506040513d601f19601f82011682018060405250810190612a349190614630565b60015b612ab9573d8060008114612a67576040519150601f19603f3d011682016040523d82523d6000602084013e612a6c565b606091505b506000815103612ab1576040517f08c379a0000000000000000000000000000000000000000000000000000000008152600401612aa8906144c9565b60405180910390fd5b805181602001fd5b63150b7a0260e01b7bffffffffffffffffffffffffffffffffffffffffffffffffffffffff1916817bffffffffffffffffffffffffffffffffffffffffffffffffffffffff191614915050612b0e565b600190505b949350505050565b505050565b6008805490506009600083815260200190815260200160002081905550600881908060018154018082558091505060019003906000526020600020016000909190919091505550565b60006001612b71846111a9565b612b7b9190613f09565b9050600060076000848152602001908152602001600020549050818114612c60576000600660008673ffffffffffffffffffffffffffffffffffffffff1673ffffffffffffffffffffffffffffffffffffffff168152602001908152602001600020600084815260200190815260200160002054905080600660008773ffffffffffffffffffffffffffffffffffffffff1673ffffffffffffffffffffffffffffffffffffffff168152602001908152602001600020600084815260200190815260200160002081905550816007600083815260200190815260200160002081905550505b6007600084815260200190815260200160002060009055600660008573ffffffffffffffffffffffffffffffffffffffff1673ffffffffffffffffffffffffffffffffffffffff16815260200190815260200160002060008381526020019081526020016000206000905550505050565b60006001600880549050612ce59190613f09565b9050600060096000848152602001908152602001600020549050600060088381548110612d1557612d14613ba5565b5b906000526020600020015490508060088381548110612d3757612d36613ba5565b5b906000526020600020018190555081600960008381526020019081526020016000208190555060096000858152602001908152602001600020600090556008805480612d8657612d8561465d565b5b6001900381819060005260206000200160009055905550505050565b6000612dad836111a9565b905081600660008573ffffffffffffffffffffffffffffffffffffffff1673ffffffffffffffffffffffffffffffffffffffff168152602001908152602001600020600083815260200190815260200160002081905550806007600084815260200190815260200160002081905550505050565b600073ffffffffffffffffffffffffffffffffffffffff168273ffffffffffffffffffffffffffffffffffffffff1603612e90576040517f08c379a0000000000000000000000000000000000000000000000000000000008152600401612e87906146d8565b60405180910390fd5b612e9981611ea4565b15612ed9576040517f08c379a0000000000000000000000000000000000000000000000000000000008152600401612ed090614744565b60405180910390fd5b612ee56000838361281d565b6001600360008473ffffffffffffffffffffffffffffffffffffffff1673ffffffffffffffffffffffffffffffffffffffff1681526020019081526020016000206000828254612f359190613e6b565b92505081905550816002600083815260200190815260200160002060006101000a81548173ffffffffffffffffffffffffffffffffffffffff021916908373ffffffffffffffffffffffffffffffffffffffff160217905550808273ffffffffffffffffffffffffffffffffffffffff16600073ffffffffffffffffffffffffffffffffffffffff167fddf252ad1be2c89b69c2b068fc378daa952ba7f163c4a11628f55a4df523b3ef60405160405180910390a4612ff66000838361292f565b5050565b6000808273ffffffffffffffffffffffffffffffffffffffff163b119050919050565b8280546130299061379c565b90600052602060002090601f01602090048101928261304b5760008555613092565b82601f1061306457805160ff1916838001178555613092565b82800160010185558215613092579182015b82811115613091578251825591602001919060010190613076565b5b50905061309f91906130a3565b5090565b5b808211156130bc5760008160009055506001016130a4565b5090565b6000604051905090565b600080fd5b600080fd5b60007fffffffff0000000000000000000000000000000000000000000000000000000082169050919050565b613109816130d4565b811461311457600080fd5b50565b60008135905061312681613100565b92915050565b600060208284031215613142576131416130ca565b5b600061315084828501613117565b91505092915050565b60008115159050919050565b61316e81613159565b82525050565b60006020820190506131896000830184613165565b92915050565b600081519050919050565b600082825260208201905092915050565b60005b838110156131c95780820151818401526020810190506131ae565b838111156131d8576000848401525b50505050565b6000601f19601f8301169050919050565b60006131fa8261318f565b613204818561319a565b93506132148185602086016131ab565b61321d816131de565b840191505092915050565b6000602082019050818103600083015261324281846131ef565b905092915050565b6000819050919050565b61325d8161324a565b811461326857600080fd5b50565b60008135905061327a81613254565b92915050565b600060208284031215613296576132956130ca565b5b60006132a48482850161326b565b91505092915050565b600073ffffffffffffffffffffffffffffffffffffffff82169050919050565b60006132d8826132ad565b9050919050565b6132e8816132cd565b82525050565b600060208201905061330360008301846132df565b92915050565b613312816132cd565b811461331d57600080fd5b50565b60008135905061332f81613309565b92915050565b6000806040838503121561334c5761334b6130ca565b5b600061335a85828601613320565b925050602061336b8582860161326b565b9150509250929050565b61337e8161324a565b82525050565b60006020820190506133996000830184613375565b92915050565b6000806000606084860312156133b8576133b76130ca565b5b60006133c686828701613320565b93505060206133d786828701613320565b92505060406133e88682870161326b565b9150509250925092565b600060208284031215613408576134076130ca565b5b600061341684828501613320565b91505092915050565b600080fd5b600080fd5b7f4e487b7100000000000000000000000000000000000000000000000000000000600052604160045260246000fd5b613461826131de565b810181811067ffffffffffffffff821117156134805761347f613429565b5b80604052505050565b60006134936130c0565b905061349f8282613458565b919050565b600067ffffffffffffffff8211156134bf576134be613429565b5b6134c8826131de565b9050602081019050919050565b82818337600083830152505050565b60006134f76134f2846134a4565b613489565b90508281526020810184848401111561351357613512613424565b5b61351e8482856134d5565b509392505050565b600082601f83011261353b5761353a61341f565b5b813561354b8482602086016134e4565b91505092915050565b60006020828403121561356a576135696130ca565b5b600082013567ffffffffffffffff811115613588576135876130cf565b5b61359484828501613526565b91505092915050565b6135a681613159565b81146135b157600080fd5b50565b6000813590506135c38161359d565b92915050565b600080604083850312156135e0576135df6130ca565b5b60006135ee85828601613320565b92505060206135ff858286016135b4565b9150509250929050565b600067ffffffffffffffff82111561362457613623613429565b5b61362d826131de565b9050602081019050919050565b600061364d61364884613609565b613489565b90508281526020810184848401111561366957613668613424565b5b6136748482856134d5565b509392505050565b600082601f8301126136915761369061341f565b5b81356136a184826020860161363a565b91505092915050565b600080600080608085870312156136c4576136c36130ca565b5b60006136d287828801613320565b94505060206136e387828801613320565b93505060406136f48782880161326b565b925050606085013567ffffffffffffffff811115613715576137146130cf565b5b6137218782880161367c565b91505092959194509250565b60008060408385031215613744576137436130ca565b5b600061375285828601613320565b925050602061376385828601613320565b9150509250929050565b7f4e487b7100000000000000000000000000000000000000000000000000000000600052602260045260246000fd5b600060028204905060018216806137b457607f821691505b6020821081036137c7576137c661376d565b5b50919050565b7f4552433732313a20617070726f76656420717565727920666f72206e6f6e657860008201527f697374656e7420746f6b656e0000000000000000000000000000000000000000602082015250565b6000613829602c8361319a565b9150613834826137cd565b604082019050919050565b600060208201905081810360008301526138588161381c565b9050919050565b7f4552433732313a20617070726f76616c20746f2063757272656e74206f776e6560008201527f7200000000000000000000000000000000000000000000000000000000000000602082015250565b60006138bb60218361319a565b91506138c68261385f565b604082019050919050565b600060208201905081810360008301526138ea816138ae565b9050919050565b7f4552433732313a20617070726f76652063616c6c6572206973206e6f74206f7760008201527f6e6572206e6f7220617070726f76656420666f7220616c6c0000000000000000602082015250565b600061394d60388361319a565b9150613958826138f1565b604082019050919050565b6000602082019050818103600083015261397c81613940565b9050919050565b7f4f776e61626c653a2063616c6c6572206973206e6f7420746865206f776e6572600082015250565b60006139b960208361319a565b91506139c482613983565b602082019050919050565b600060208201905081810360008301526139e8816139ac565b9050919050565b7f4552433732313a207472616e736665722063616c6c6572206973206e6f74206f60008201527f776e6572206e6f7220617070726f766564000000000000000000000000000000602082015250565b6000613a4b60318361319a565b9150613a56826139ef565b604082019050919050565b60006020820190508181036000830152613a7a81613a3e565b9050919050565b7f455243373231456e756d657261626c653a206f776e657220696e646578206f7560008201527f74206f6620626f756e6473000000000000000000000000000000000000000000602082015250565b6000613add602b8361319a565b9150613ae882613a81565b604082019050919050565b60006020820190508181036000830152613b0c81613ad0565b9050919050565b7f455243373231456e756d657261626c653a20676c6f62616c20696e646578206f60008201527f7574206f6620626f756e64730000000000000000000000000000000000000000602082015250565b6000613b6f602c8361319a565b9150613b7a82613b13565b604082019050919050565b60006020820190508181036000830152613b9e81613b62565b9050919050565b7f4e487b7100000000000000000000000000000000000000000000000000000000600052603260045260246000fd5b7f4552433732313a206f776e657220717565727920666f72206e6f6e657869737460008201527f656e7420746f6b656e0000000000000000000000000000000000000000000000602082015250565b6000613c3060298361319a565b9150613c3b82613bd4565b604082019050919050565b60006020820190508181036000830152613c5f81613c23565b9050919050565b7f4552433732313a2062616c616e636520717565727920666f7220746865207a6560008201527f726f206164647265737300000000000000000000000000000000000000000000602082015250565b6000613cc2602a8361319a565b9150613ccd82613c66565b604082019050919050565b60006020820190508181036000830152613cf181613cb5565b9050919050565b7f5265656e7472616e637947756172643a207265656e7472616e742063616c6c00600082015250565b6000613d2e601f8361319a565b9150613d3982613cf8565b602082019050919050565b60006020820190508181036000830152613d5d81613d21565b9050919050565b7f416e696d613a204d617820537570706c79207265616368656400000000000000600082015250565b6000613d9a60198361319a565b9150613da582613d64565b602082019050919050565b60006020820190508181036000830152613dc981613d8d565b9050919050565b7f416e696d613a2056616c7565203c207072696365000000000000000000000000600082015250565b6000613e0660148361319a565b9150613e1182613dd0565b602082019050919050565b60006020820190508181036000830152613e3581613df9565b9050919050565b7f4e487b7100000000000000000000000000000000000000000000000000000000600052601160045260246000fd5b6000613e768261324a565b9150613e818361324a565b9250827fffffffffffffffffffffffffffffffffffffffffffffffffffffffffffffffff03821115613eb657613eb5613e3c565b5b828201905092915050565b6000613ecc8261324a565b91507fffffffffffffffffffffffffffffffffffffffffffffffffffffffffffffffff8203613efe57613efd613e3c565b5b600182019050919050565b6000613f148261324a565b9150613f1f8361324a565b925082821015613f3257613f31613e3c565b5b828203905092915050565b6000613f488261324a565b9150613f538361324a565b9250817fffffffffffffffffffffffffffffffffffffffffffffffffffffffffffffffff0483118215151615613f8c57613f8b613e3c565b5b828202905092915050565b7f4552433732314d657461646174613a2055524920717565727920666f72206e6f60008201527f6e6578697374656e7420746f6b656e0000000000000000000000000000000000602082015250565b6000613ff3602f8361319a565b9150613ffe82613f97565b604082019050919050565b6000602082019050818103600083015261402281613fe6565b9050919050565b600081905092915050565b600061403f8261318f565b6140498185614029565b93506140598185602086016131ab565b80840191505092915050565b60006140718285614034565b915061407d8284614034565b91508190509392505050565b60008151905061409881613254565b92915050565b6000602082840312156140b4576140b36130ca565b5b60006140c284828501614089565b91505092915050565b7f416e696d613a204e6f207265616c6d7300000000000000000000000000000000600082015250565b600061410160108361319a565b915061410c826140cb565b602082019050919050565b60006020820190508181036000830152614130816140f4565b9050919050565b7f416e696d613a20416c726561647920636f6c6c65637465640000000000000000600082015250565b600061416d60188361319a565b915061417882614137565b602082019050919050565b6000602082019050818103600083015261419c81614160565b9050919050565b7f4f776e61626c653a206e6577206f776e657220697320746865207a65726f206160008201527f6464726573730000000000000000000000000000000000000000000000000000602082015250565b60006141ff60268361319a565b915061420a826141a3565b604082019050919050565b6000602082019050818103600083015261422e816141f2565b9050919050565b7f4552433732313a206f70657261746f7220717565727920666f72206e6f6e657860008201527f697374656e7420746f6b656e0000000000000000000000000000000000000000602082015250565b6000614291602c8361319a565b915061429c82614235565b604082019050919050565b600060208201905081810360008301526142c081614284565b9050919050565b7f4552433732313a207472616e736665722066726f6d20696e636f72726563742060008201527f6f776e6572000000000000000000000000000000000000000000000000000000602082015250565b600061432360258361319a565b915061432e826142c7565b604082019050919050565b6000602082019050818103600083015261435281614316565b9050919050565b7f4552433732313a207472616e7366657220746f20746865207a65726f2061646460008201527f7265737300000000000000000000000000000000000000000000000000000000602082015250565b60006143b560248361319a565b91506143c082614359565b604082019050919050565b600060208201905081810360008301526143e4816143a8565b9050919050565b7f4552433732313a20617070726f766520746f2063616c6c657200000000000000600082015250565b600061442160198361319a565b915061442c826143eb565b602082019050919050565b6000602082019050818103600083015261445081614414565b9050919050565b7f4552433732313a207472616e7366657220746f206e6f6e20455243373231526560008201527f63656976657220696d706c656d656e7465720000000000000000000000000000602082015250565b60006144b360328361319a565b91506144be82614457565b604082019050919050565b600060208201905081810360008301526144e2816144a6565b9050919050565b7f4e487b7100000000000000000000000000000000000000000000000000000000600052601260045260246000fd5b60006145238261324a565b915061452e8361324a565b92508261453e5761453d6144e9565b5b828204905092915050565b60006145548261324a565b915061455f8361324a565b92508261456f5761456e6144e9565b5b828206905092915050565b600081519050919050565b600082825260208201905092915050565b60006145a18261457a565b6145ab8185614585565b93506145bb8185602086016131ab565b6145c4816131de565b840191505092915050565b60006080820190506145e460008301876132df565b6145f160208301866132df565b6145fe6040830185613375565b81810360608301526146108184614596565b905095945050505050565b60008151905061462a81613100565b92915050565b600060208284031215614646576146456130ca565b5b60006146548482850161461b565b91505092915050565b7f4e487b7100000000000000000000000000000000000000000000000000000000600052603160045260246000fd5b7f4552433732313a206d696e7420746f20746865207a65726f2061646472657373600082015250565b60006146c260208361319a565b91506146cd8261468c565b602082019050919050565b600060208201905081810360008301526146f1816146b5565b9050919050565b7f4552433732313a20746f6b656e20616c7265616479206d696e74656400000000600082015250565b600061472e601c8361319a565b9150614739826146f8565b602082019050919050565b6000602082019050818103600083015261475d81614721565b905091905056fea2646970667358221220940e8d320d16d3e1ea626efe6df708bbefc505104f5fa8d38285f3a3535f04b064736f6c634300080d0033",
  "immutableReferences": {},
  "source": "// SPDX-License-Identifier: Unlicensed\npragma solidity ^0.8.10;\n\nimport \"@openzeppelin/contracts/token/ERC721/ERC721.sol\";\nimport \"@openzeppelin/contracts/access/Ownable.sol\";\nimport \"@openzeppelin/contracts/security/ReentrancyGuard.sol\";\nimport \"@openzeppelin/contracts/token/ERC721/extensions/ERC721Enumerable.sol\";\n\ncontract Journey {\n    function getNumberRealms(address _player) public view returns (uint256) {}\n}\n\ncontract AstralAnima is ERC721Enumerable, ReentrancyGuard, Ownable {\n    string public baseURI;\n    Journey _journey;\n\n    \n    string public PROVENANCE = \"\";\n    uint256 public lastId = 0;\n    uint256 public maxSupply = 700;\n    uint256 public discountPrice = 70000000000000000; // in wei, 0.07 ETH \n    uint256 public publicPrice = 150000000000000000; //0.15 ETH\n    \n    mapping(address=>bool) public lordsDiscountCollected;\n\n    constructor(address _journeyAddr) ERC721(\"Astral Anima\", \"AstralAnima\") {\n        _journey = Journey(_journeyAddr);\n    }\n\n    function withdraw() public onlyOwner {\n        uint256 balance = address(this).balance;\n        payable(msg.sender).transfer(balance);\n    }\n\n    function deposit() public payable onlyOwner {}\n\n    function setDiscountPrice(uint256 _discountPrice) public onlyOwner {\n        discountPrice = _discountPrice;\n    }\n\n    function setPublicPrice(uint256 _newPrice) public onlyOwner {\n        publicPrice = _newPrice;\n    }\n\n    function setMaxSupply(uint256 _newMax) public onlyOwner {\n        maxSupply = _newMax;\n    }\n\n    function setLastId(uint256 _newLastId) public onlyOwner {\n        lastId = _newLastId;\n    }\n\n     function _baseURI() internal view override returns (string memory) {\n        return baseURI;\n    }\n\n    function setBaseURI(string memory _newBaseURI) public onlyOwner {\n        baseURI = _newBaseURI;\n    }\n\n     function setProvenance(string memory _prov) public onlyOwner {\n        PROVENANCE = _prov;\n    }\n\n    function mintFromJourney() public payable nonReentrant {\n        require(lastId < maxSupply, \"Anima: Max Supply reached\");\n        require(_journey.getNumberRealms(msg.sender) > 0, \"Anima: No realms\");\n        require(msg.value >= discountPrice, \"Anima: Value < price\");\n        require(!lordsDiscountCollected[msg.sender], \"Anima: Already collected\");\n        _safeMint(msg.sender, lastId + 1);\n        lordsDiscountCollected[msg.sender] = true;\n\n        lastId++;\n    }\n\n    function mintPublic() public payable nonReentrant {\n        require(lastId < maxSupply, \"Anima: Max Supply reached\");\n        require(msg.value >= publicPrice, \"Anima: Value < price\");\n        _safeMint(msg.sender, lastId + 1);\n\n        lastId++;\n    }\n\n    function multiMint(uint256 _amount) public payable nonReentrant {\n        require((maxSupply - lastId) >= _amount, \"Anima: Max Supply reached\");\n        require(msg.value >= (publicPrice * _amount), \"Anima: Value < price\");\n        \n        for (uint256 i=0; i<_amount; i++) {\n            _safeMint(msg.sender, lastId + 1 + i);\n        }\n\n        lastId+=_amount;\n    }\n\n    function mintTo(address _receiver, uint256 _tokenId) public onlyOwner {\n        _safeMint(_receiver, _tokenId);\n    }\n}",
  "sourcePath": "/home/rebus2/Desktop/solidity_learning/EtherArena/contracts/AstralAnima.sol",
  "compiler": {
    "name": "solc",
    "version": "0.8.13+commit.abaa5c0e.Emscripten.clang"
  },
  "schemaVersion": "3.4.7",
  "updatedAt": "2022-05-11T19:24:17.189Z",
  "networkType": "ethereum",
  "devdoc": {
    "kind": "dev",
    "methods": {
      "approve(address,uint256)": {
        "details": "See {IERC721-approve}."
      },
      "balanceOf(address)": {
        "details": "See {IERC721-balanceOf}."
      },
      "getApproved(uint256)": {
        "details": "See {IERC721-getApproved}."
      },
      "isApprovedForAll(address,address)": {
        "details": "See {IERC721-isApprovedForAll}."
      },
      "name()": {
        "details": "See {IERC721Metadata-name}."
      },
      "owner()": {
        "details": "Returns the address of the current owner."
      },
      "ownerOf(uint256)": {
        "details": "See {IERC721-ownerOf}."
      },
      "renounceOwnership()": {
        "details": "Leaves the contract without owner. It will not be possible to call `onlyOwner` functions anymore. Can only be called by the current owner. NOTE: Renouncing ownership will leave the contract without an owner, thereby removing any functionality that is only available to the owner."
      },
      "safeTransferFrom(address,address,uint256)": {
        "details": "See {IERC721-safeTransferFrom}."
      },
      "safeTransferFrom(address,address,uint256,bytes)": {
        "details": "See {IERC721-safeTransferFrom}."
      },
      "setApprovalForAll(address,bool)": {
        "details": "See {IERC721-setApprovalForAll}."
      },
      "supportsInterface(bytes4)": {
        "details": "See {IERC165-supportsInterface}."
      },
      "symbol()": {
        "details": "See {IERC721Metadata-symbol}."
      },
      "tokenByIndex(uint256)": {
        "details": "See {IERC721Enumerable-tokenByIndex}."
      },
      "tokenOfOwnerByIndex(address,uint256)": {
        "details": "See {IERC721Enumerable-tokenOfOwnerByIndex}."
      },
      "tokenURI(uint256)": {
        "details": "See {IERC721Metadata-tokenURI}."
      },
      "totalSupply()": {
        "details": "See {IERC721Enumerable-totalSupply}."
      },
      "transferFrom(address,address,uint256)": {
        "details": "See {IERC721-transferFrom}."
      },
      "transferOwnership(address)": {
        "details": "Transfers ownership of the contract to a new account (`newOwner`). Can only be called by the current owner."
      }
    },
    "version": 1
  },
  "userdoc": {
    "kind": "user",
    "methods": {},
    "version": 1
  }
}