{
  "contractName": "Collection2",
  "abi": [
    {
      "inputs": [],
      "stateMutability": "nonpayable",
      "type": "constructor"
    },
    {
      "anonymous": false,
      "inputs": [
        {
          "indexed": true,
          "internalType": "address",
          "name": "owner",
          "type": "address"
        },
        {
          "indexed": true,
          "internalType": "address",
          "name": "approved",
          "type": "address"
        },
        {
          "indexed": true,
          "internalType": "uint256",
          "name": "tokenId",
          "type": "uint256"
        }
      ],
      "name": "Approval",
      "type": "event"
    },
    {
      "anonymous": false,
      "inputs": [
        {
          "indexed": true,
          "internalType": "address",
          "name": "owner",
          "type": "address"
        },
        {
          "indexed": true,
          "internalType": "address",
          "name": "operator",
          "type": "address"
        },
        {
          "indexed": false,
          "internalType": "bool",
          "name": "approved",
          "type": "bool"
        }
      ],
      "name": "ApprovalForAll",
      "type": "event"
    },
    {
      "anonymous": false,
      "inputs": [
        {
          "indexed": true,
          "internalType": "address",
          "name": "previousOwner",
          "type": "address"
        },
        {
          "indexed": true,
          "internalType": "address",
          "name": "newOwner",
          "type": "address"
        }
      ],
      "name": "OwnershipTransferred",
      "type": "event"
    },
    {
      "anonymous": false,
      "inputs": [
        {
          "indexed": true,
          "internalType": "address",
          "name": "from",
          "type": "address"
        },
        {
          "indexed": true,
          "internalType": "address",
          "name": "to",
          "type": "address"
        },
        {
          "indexed": true,
          "internalType": "uint256",
          "name": "tokenId",
          "type": "uint256"
        }
      ],
      "name": "Transfer",
      "type": "event"
    },
    {
      "inputs": [],
      "name": "PROVENANCE",
      "outputs": [
        {
          "internalType": "string",
          "name": "",
          "type": "string"
        }
      ],
      "stateMutability": "view",
      "type": "function",
      "constant": true
    },
    {
      "inputs": [
        {
          "internalType": "address",
          "name": "to",
          "type": "address"
        },
        {
          "internalType": "uint256",
          "name": "tokenId",
          "type": "uint256"
        }
      ],
      "name": "approve",
      "outputs": [],
      "stateMutability": "nonpayable",
      "type": "function"
    },
    {
      "inputs": [
        {
          "internalType": "address",
          "name": "owner",
          "type": "address"
        }
      ],
      "name": "balanceOf",
      "outputs": [
        {
          "internalType": "uint256",
          "name": "",
          "type": "uint256"
        }
      ],
      "stateMutability": "view",
      "type": "function",
      "constant": true
    },
    {
      "inputs": [],
      "name": "baseURI",
      "outputs": [
        {
          "internalType": "string",
          "name": "",
          "type": "string"
        }
      ],
      "stateMutability": "view",
      "type": "function",
      "constant": true
    },
    {
      "inputs": [
        {
          "internalType": "uint256",
          "name": "tokenId",
          "type": "uint256"
        }
      ],
      "name": "getApproved",
      "outputs": [
        {
          "internalType": "address",
          "name": "",
          "type": "address"
        }
      ],
      "stateMutability": "view",
      "type": "function",
      "constant": true
    },
    {
      "inputs": [
        {
          "internalType": "address",
          "name": "owner",
          "type": "address"
        },
        {
          "internalType": "address",
          "name": "operator",
          "type": "address"
        }
      ],
      "name": "isApprovedForAll",
      "outputs": [
        {
          "internalType": "bool",
          "name": "",
          "type": "bool"
        }
      ],
      "stateMutability": "view",
      "type": "function",
      "constant": true
    },
    {
      "inputs": [],
      "name": "lastId",
      "outputs": [
        {
          "internalType": "uint256",
          "name": "",
          "type": "uint256"
        }
      ],
      "stateMutability": "view",
      "type": "function",
      "constant": true
    },
    {
      "inputs": [],
      "name": "maxSupply",
      "outputs": [
        {
          "internalType": "uint256",
          "name": "",
          "type": "uint256"
        }
      ],
      "stateMutability": "view",
      "type": "function",
      "constant": true
    },
    {
      "inputs": [],
      "name": "name",
      "outputs": [
        {
          "internalType": "string",
          "name": "",
          "type": "string"
        }
      ],
      "stateMutability": "view",
      "type": "function",
      "constant": true
    },
    {
      "inputs": [],
      "name": "owner",
      "outputs": [
        {
          "internalType": "address",
          "name": "",
          "type": "address"
        }
      ],
      "stateMutability": "view",
      "type": "function",
      "constant": true
    },
    {
      "inputs": [
        {
          "internalType": "uint256",
          "name": "tokenId",
          "type": "uint256"
        }
      ],
      "name": "ownerOf",
      "outputs": [
        {
          "internalType": "address",
          "name": "",
          "type": "address"
        }
      ],
      "stateMutability": "view",
      "type": "function",
      "constant": true
    },
    {
      "inputs": [],
      "name": "publicPrice",
      "outputs": [
        {
          "internalType": "uint256",
          "name": "",
          "type": "uint256"
        }
      ],
      "stateMutability": "view",
      "type": "function",
      "constant": true
    },
    {
      "inputs": [],
      "name": "renounceOwnership",
      "outputs": [],
      "stateMutability": "nonpayable",
      "type": "function"
    },
    {
      "inputs": [
        {
          "internalType": "address",
          "name": "from",
          "type": "address"
        },
        {
          "internalType": "address",
          "name": "to",
          "type": "address"
        },
        {
          "internalType": "uint256",
          "name": "tokenId",
          "type": "uint256"
        }
      ],
      "name": "safeTransferFrom",
      "outputs": [],
      "stateMutability": "nonpayable",
      "type": "function"
    },
    {
      "inputs": [
        {
          "internalType": "address",
          "name": "from",
          "type": "address"
        },
        {
          "internalType": "address",
          "name": "to",
          "type": "address"
        },
        {
          "internalType": "uint256",
          "name": "tokenId",
          "type": "uint256"
        },
        {
          "internalType": "bytes",
          "name": "_data",
          "type": "bytes"
        }
      ],
      "name": "safeTransferFrom",
      "outputs": [],
      "stateMutability": "nonpayable",
      "type": "function"
    },
    {
      "inputs": [
        {
          "internalType": "address",
          "name": "operator",
          "type": "address"
        },
        {
          "internalType": "bool",
          "name": "approved",
          "type": "bool"
        }
      ],
      "name": "setApprovalForAll",
      "outputs": [],
      "stateMutability": "nonpayable",
      "type": "function"
    },
    {
      "inputs": [
        {
          "internalType": "bytes4",
          "name": "interfaceId",
          "type": "bytes4"
        }
      ],
      "name": "supportsInterface",
      "outputs": [
        {
          "internalType": "bool",
          "name": "",
          "type": "bool"
        }
      ],
      "stateMutability": "view",
      "type": "function",
      "constant": true
    },
    {
      "inputs": [],
      "name": "symbol",
      "outputs": [
        {
          "internalType": "string",
          "name": "",
          "type": "string"
        }
      ],
      "stateMutability": "view",
      "type": "function",
      "constant": true
    },
    {
      "inputs": [
        {
          "internalType": "uint256",
          "name": "index",
          "type": "uint256"
        }
      ],
      "name": "tokenByIndex",
      "outputs": [
        {
          "internalType": "uint256",
          "name": "",
          "type": "uint256"
        }
      ],
      "stateMutability": "view",
      "type": "function",
      "constant": true
    },
    {
      "inputs": [
        {
          "internalType": "address",
          "name": "owner",
          "type": "address"
        },
        {
          "internalType": "uint256",
          "name": "index",
          "type": "uint256"
        }
      ],
      "name": "tokenOfOwnerByIndex",
      "outputs": [
        {
          "internalType": "uint256",
          "name": "",
          "type": "uint256"
        }
      ],
      "stateMutability": "view",
      "type": "function",
      "constant": true
    },
    {
      "inputs": [
        {
          "internalType": "uint256",
          "name": "tokenId",
          "type": "uint256"
        }
      ],
      "name": "tokenURI",
      "outputs": [
        {
          "internalType": "string",
          "name": "",
          "type": "string"
        }
      ],
      "stateMutability": "view",
      "type": "function",
      "constant": true
    },
    {
      "inputs": [],
      "name": "totalSupply",
      "outputs": [
        {
          "internalType": "uint256",
          "name": "",
          "type": "uint256"
        }
      ],
      "stateMutability": "view",
      "type": "function",
      "constant": true
    },
    {
      "inputs": [
        {
          "internalType": "address",
          "name": "from",
          "type": "address"
        },
        {
          "internalType": "address",
          "name": "to",
          "type": "address"
        },
        {
          "internalType": "uint256",
          "name": "tokenId",
          "type": "uint256"
        }
      ],
      "name": "transferFrom",
      "outputs": [],
      "stateMutability": "nonpayable",
      "type": "function"
    },
    {
      "inputs": [
        {
          "internalType": "address",
          "name": "newOwner",
          "type": "address"
        }
      ],
      "name": "transferOwnership",
      "outputs": [],
      "stateMutability": "nonpayable",
      "type": "function"
    },
    {
      "inputs": [],
      "name": "withdraw",
      "outputs": [],
      "stateMutability": "nonpayable",
      "type": "function"
    },
    {
      "inputs": [],
      "name": "deposit",
      "outputs": [],
      "stateMutability": "payable",
      "type": "function",
      "payable": true
    },
    {
      "inputs": [
        {
          "internalType": "uint256",
          "name": "_newPrice",
          "type": "uint256"
        }
      ],
      "name": "setPublicPrice",
      "outputs": [],
      "stateMutability": "nonpayable",
      "type": "function"
    },
    {
      "inputs": [
        {
          "internalType": "uint256",
          "name": "_newMax",
          "type": "uint256"
        }
      ],
      "name": "setMaxSupply",
      "outputs": [],
      "stateMutability": "nonpayable",
      "type": "function"
    },
    {
      "inputs": [
        {
          "internalType": "uint256",
          "name": "_newLastId",
          "type": "uint256"
        }
      ],
      "name": "setLastId",
      "outputs": [],
      "stateMutability": "nonpayable",
      "type": "function"
    },
    {
      "inputs": [
        {
          "internalType": "string",
          "name": "_newBaseURI",
          "type": "string"
        }
      ],
      "name": "setBaseURI",
      "outputs": [],
      "stateMutability": "nonpayable",
      "type": "function"
    },
    {
      "inputs": [
        {
          "internalType": "string",
          "name": "_prov",
          "type": "string"
        }
      ],
      "name": "setProvenance",
      "outputs": [],
      "stateMutability": "nonpayable",
      "type": "function"
    },
    {
      "inputs": [],
      "name": "mintPublic",
      "outputs": [],
      "stateMutability": "payable",
      "type": "function",
      "payable": true
    },
    {
      "inputs": [
        {
          "internalType": "uint256",
          "name": "_amount",
          "type": "uint256"
        }
      ],
      "name": "multiMint",
      "outputs": [],
      "stateMutability": "payable",
      "type": "function",
      "payable": true
    },
    {
      "inputs": [
        {
          "internalType": "address",
          "name": "_receiver",
          "type": "address"
        },
        {
          "internalType": "uint256",
          "name": "_tokenId",
          "type": "uint256"
        }
      ],
      "name": "mintTo",
      "outputs": [],
      "stateMutability": "nonpayable",
      "type": "function"
    }
  ],
  "bytecode": "0x608060405260405180602001604052806000815250600d90805190602001906200002b929190620001ed565b506000600e55612710600f55670214e8348c4f00006010553480156200005057600080fd5b506040518060400160405280600b81526020017f436f6c6c656374696f6e320000000000000000000000000000000000000000008152506040518060400160405280600481526020017f434f4c32000000000000000000000000000000000000000000000000000000008152508160009080519060200190620000d5929190620001ed565b508060019080519060200190620000ee929190620001ed565b5050506001600a81905550620001196200010d6200011f60201b60201c565b6200012760201b60201c565b62000301565b600033905090565b6000600b60009054906101000a900473ffffffffffffffffffffffffffffffffffffffff16905081600b60006101000a81548173ffffffffffffffffffffffffffffffffffffffff021916908373ffffffffffffffffffffffffffffffffffffffff1602179055508173ffffffffffffffffffffffffffffffffffffffff168173ffffffffffffffffffffffffffffffffffffffff167f8be0079c531659141344cd1fd0a4f28419497f9722a3daafe3b4186f6b6457e060405160405180910390a35050565b828054620001fb90620002cc565b90600052602060002090601f0160209004810192826200021f57600085556200026b565b82601f106200023a57805160ff19168380011785556200026b565b828001600101855582156200026b579182015b828111156200026a5782518255916020019190600101906200024d565b5b5090506200027a91906200027e565b5090565b5b80821115620002995760008160009055506001016200027f565b5090565b7f4e487b7100000000000000000000000000000000000000000000000000000000600052602260045260246000fd5b60006002820490506001821680620002e557607f821691505b602082108103620002fb57620002fa6200029d565b5b50919050565b61423880620003116000396000f3fe6080604052600436106101f95760003560e01c806370a082311161010d578063b88d4fde116100a0578063d0e30db01161006f578063d0e30db0146106ef578063d5abeb01146106f9578063e985e9c514610724578063f2fde38b14610761578063ffe630b51461078a576101f9565b8063b88d4fde14610635578063c1292cc31461065e578063c627525514610689578063c87b56dd146106b2576101f9565b806395d89b41116100dc57806395d89b411461059a578063a22cb465146105c5578063a945bf80146105ee578063ab00492f14610619576101f9565b806370a0823114610511578063715018a61461054e5780638c874ebd146105655780638da5cb5b1461056f576101f9565b80633ccfd60b1161019057806355f804b31161015f57806355f804b31461042c5780636352211e146104555780636373a6b1146104925780636c0360eb146104bd5780636f8b44b0146104e8576101f9565b80633ccfd60b1461038657806342842e0e1461039d578063449a52f8146103c65780634f6ccce7146103ef576101f9565b806318160ddd116101cc57806318160ddd146102cc5780631a27e85f146102f757806323b872dd146103205780632f745c5914610349576101f9565b806301ffc9a7146101fe57806306fdde031461023b578063081812fc14610266578063095ea7b3146102a3575b600080fd5b34801561020a57600080fd5b5061022560048036038101906102209190612ce4565b6107b3565b6040516102329190612d2c565b60405180910390f35b34801561024757600080fd5b5061025061082d565b60405161025d9190612de0565b60405180910390f35b34801561027257600080fd5b5061028d60048036038101906102889190612e38565b6108bf565b60405161029a9190612ea6565b60405180910390f35b3480156102af57600080fd5b506102ca60048036038101906102c59190612eed565b610944565b005b3480156102d857600080fd5b506102e1610a5b565b6040516102ee9190612f3c565b60405180910390f35b34801561030357600080fd5b5061031e60048036038101906103199190612e38565b610a68565b005b34801561032c57600080fd5b5061034760048036038101906103429190612f57565b610aee565b005b34801561035557600080fd5b50610370600480360381019061036b9190612eed565b610b4e565b60405161037d9190612f3c565b60405180910390f35b34801561039257600080fd5b5061039b610bf3565b005b3480156103a957600080fd5b506103c460048036038101906103bf9190612f57565b610cbe565b005b3480156103d257600080fd5b506103ed60048036038101906103e89190612eed565b610cde565b005b3480156103fb57600080fd5b5061041660048036038101906104119190612e38565b610d68565b6040516104239190612f3c565b60405180910390f35b34801561043857600080fd5b50610453600480360381019061044e91906130df565b610dd9565b005b34801561046157600080fd5b5061047c60048036038101906104779190612e38565b610e6f565b6040516104899190612ea6565b60405180910390f35b34801561049e57600080fd5b506104a7610f20565b6040516104b49190612de0565b60405180910390f35b3480156104c957600080fd5b506104d2610fae565b6040516104df9190612de0565b60405180910390f35b3480156104f457600080fd5b5061050f600480360381019061050a9190612e38565b61103c565b005b34801561051d57600080fd5b5061053860048036038101906105339190613128565b6110c2565b6040516105459190612f3c565b60405180910390f35b34801561055a57600080fd5b50610563611179565b005b61056d611201565b005b34801561057b57600080fd5b50610584611313565b6040516105919190612ea6565b60405180910390f35b3480156105a657600080fd5b506105af61133d565b6040516105bc9190612de0565b60405180910390f35b3480156105d157600080fd5b506105ec60048036038101906105e79190613181565b6113cf565b005b3480156105fa57600080fd5b506106036113e5565b6040516106109190612f3c565b60405180910390f35b610633600480360381019061062e9190612e38565b6113eb565b005b34801561064157600080fd5b5061065c60048036038101906106579190613262565b611540565b005b34801561066a57600080fd5b506106736115a2565b6040516106809190612f3c565b60405180910390f35b34801561069557600080fd5b506106b060048036038101906106ab9190612e38565b6115a8565b005b3480156106be57600080fd5b506106d960048036038101906106d49190612e38565b61162e565b6040516106e69190612de0565b60405180910390f35b6106f76116d5565b005b34801561070557600080fd5b5061070e611753565b60405161071b9190612f3c565b60405180910390f35b34801561073057600080fd5b5061074b600480360381019061074691906132e5565b611759565b6040516107589190612d2c565b60405180910390f35b34801561076d57600080fd5b5061078860048036038101906107839190613128565b6117ed565b005b34801561079657600080fd5b506107b160048036038101906107ac91906130df565b6118e4565b005b60007f780e9d63000000000000000000000000000000000000000000000000000000007bffffffffffffffffffffffffffffffffffffffffffffffffffffffff1916827bffffffffffffffffffffffffffffffffffffffffffffffffffffffff1916148061082657506108258261197a565b5b9050919050565b60606000805461083c90613354565b80601f016020809104026020016040519081016040528092919081815260200182805461086890613354565b80156108b55780601f1061088a576101008083540402835291602001916108b5565b820191906000526020600020905b81548152906001019060200180831161089857829003601f168201915b5050505050905090565b60006108ca82611a5c565b610909576040517f08c379a0000000000000000000000000000000000000000000000000000000008152600401610900906133f7565b60405180910390fd5b6004600083815260200190815260200160002060009054906101000a900473ffffffffffffffffffffffffffffffffffffffff169050919050565b600061094f82610e6f565b90508073ffffffffffffffffffffffffffffffffffffffff168373ffffffffffffffffffffffffffffffffffffffff16036109bf576040517f08c379a00000000000000000000000000000000000000000000000000000000081526004016109b690613489565b60405180910390fd5b8073ffffffffffffffffffffffffffffffffffffffff166109de611ac8565b73ffffffffffffffffffffffffffffffffffffffff161480610a0d5750610a0c81610a07611ac8565b611759565b5b610a4c576040517f08c379a0000000000000000000000000000000000000000000000000000000008152600401610a439061351b565b60405180910390fd5b610a568383611ad0565b505050565b6000600880549050905090565b610a70611ac8565b73ffffffffffffffffffffffffffffffffffffffff16610a8e611313565b73ffffffffffffffffffffffffffffffffffffffff1614610ae4576040517f08c379a0000000000000000000000000000000000000000000000000000000008152600401610adb90613587565b60405180910390fd5b80600e8190555050565b610aff610af9611ac8565b82611b89565b610b3e576040517f08c379a0000000000000000000000000000000000000000000000000000000008152600401610b3590613619565b60405180910390fd5b610b49838383611c67565b505050565b6000610b59836110c2565b8210610b9a576040517f08c379a0000000000000000000000000000000000000000000000000000000008152600401610b91906136ab565b60405180910390fd5b600660008473ffffffffffffffffffffffffffffffffffffffff1673ffffffffffffffffffffffffffffffffffffffff168152602001908152602001600020600083815260200190815260200160002054905092915050565b610bfb611ac8565b73ffffffffffffffffffffffffffffffffffffffff16610c19611313565b73ffffffffffffffffffffffffffffffffffffffff1614610c6f576040517f08c379a0000000000000000000000000000000000000000000000000000000008152600401610c6690613587565b60405180910390fd5b60004790503373ffffffffffffffffffffffffffffffffffffffff166108fc829081150290604051600060405180830381858888f19350505050158015610cba573d6000803e3d6000fd5b5050565b610cd983838360405180602001604052806000815250611540565b505050565b610ce6611ac8565b73ffffffffffffffffffffffffffffffffffffffff16610d04611313565b73ffffffffffffffffffffffffffffffffffffffff1614610d5a576040517f08c379a0000000000000000000000000000000000000000000000000000000008152600401610d5190613587565b60405180910390fd5b610d648282611ecd565b5050565b6000610d72610a5b565b8210610db3576040517f08c379a0000000000000000000000000000000000000000000000000000000008152600401610daa9061373d565b60405180910390fd5b60088281548110610dc757610dc661375d565b5b90600052602060002001549050919050565b610de1611ac8565b73ffffffffffffffffffffffffffffffffffffffff16610dff611313565b73ffffffffffffffffffffffffffffffffffffffff1614610e55576040517f08c379a0000000000000000000000000000000000000000000000000000000008152600401610e4c90613587565b60405180910390fd5b80600c9080519060200190610e6b929190612bd5565b5050565b6000806002600084815260200190815260200160002060009054906101000a900473ffffffffffffffffffffffffffffffffffffffff169050600073ffffffffffffffffffffffffffffffffffffffff168173ffffffffffffffffffffffffffffffffffffffff1603610f17576040517f08c379a0000000000000000000000000000000000000000000000000000000008152600401610f0e906137fe565b60405180910390fd5b80915050919050565b600d8054610f2d90613354565b80601f0160208091040260200160405190810160405280929190818152602001828054610f5990613354565b8015610fa65780601f10610f7b57610100808354040283529160200191610fa6565b820191906000526020600020905b815481529060010190602001808311610f8957829003601f168201915b505050505081565b600c8054610fbb90613354565b80601f0160208091040260200160405190810160405280929190818152602001828054610fe790613354565b80156110345780601f1061100957610100808354040283529160200191611034565b820191906000526020600020905b81548152906001019060200180831161101757829003601f168201915b505050505081565b611044611ac8565b73ffffffffffffffffffffffffffffffffffffffff16611062611313565b73ffffffffffffffffffffffffffffffffffffffff16146110b8576040517f08c379a00000000000000000000000000000000000000000000000000000000081526004016110af90613587565b60405180910390fd5b80600f8190555050565b60008073ffffffffffffffffffffffffffffffffffffffff168273ffffffffffffffffffffffffffffffffffffffff1603611132576040517f08c379a000000000000000000000000000000000000000000000000000000000815260040161112990613890565b60405180910390fd5b600360008373ffffffffffffffffffffffffffffffffffffffff1673ffffffffffffffffffffffffffffffffffffffff168152602001908152602001600020549050919050565b611181611ac8565b73ffffffffffffffffffffffffffffffffffffffff1661119f611313565b73ffffffffffffffffffffffffffffffffffffffff16146111f5576040517f08c379a00000000000000000000000000000000000000000000000000000000081526004016111ec90613587565b60405180910390fd5b6111ff6000611eeb565b565b6002600a5403611246576040517f08c379a000000000000000000000000000000000000000000000000000000000815260040161123d906138fc565b60405180910390fd5b6002600a81905550600f54600e5410611294576040517f08c379a000000000000000000000000000000000000000000000000000000000815260040161128b90613968565b60405180910390fd5b6010543410156112d9576040517f08c379a00000000000000000000000000000000000000000000000000000000081526004016112d0906139d4565b60405180910390fd5b6112f1336001600e546112ec9190613a23565b611ecd565b600e600081548092919061130490613a79565b91905055506001600a81905550565b6000600b60009054906101000a900473ffffffffffffffffffffffffffffffffffffffff16905090565b60606001805461134c90613354565b80601f016020809104026020016040519081016040528092919081815260200182805461137890613354565b80156113c55780601f1061139a576101008083540402835291602001916113c5565b820191906000526020600020905b8154815290600101906020018083116113a857829003601f168201915b5050505050905090565b6113e16113da611ac8565b8383611fb1565b5050565b60105481565b6002600a5403611430576040517f08c379a0000000000000000000000000000000000000000000000000000000008152600401611427906138fc565b60405180910390fd5b6002600a8190555080600e54600f546114499190613ac1565b101561148a576040517f08c379a000000000000000000000000000000000000000000000000000000000815260040161148190613968565b60405180910390fd5b806010546114989190613af5565b3410156114da576040517f08c379a00000000000000000000000000000000000000000000000000000000081526004016114d1906139d4565b60405180910390fd5b60005b8181101561151b5761150833826001600e546114f99190613a23565b6115039190613a23565b611ecd565b808061151390613a79565b9150506114dd565b5080600e600082825461152e9190613a23565b925050819055506001600a8190555050565b61155161154b611ac8565b83611b89565b611590576040517f08c379a000000000000000000000000000000000000000000000000000000000815260040161158790613619565b60405180910390fd5b61159c8484848461211d565b50505050565b600e5481565b6115b0611ac8565b73ffffffffffffffffffffffffffffffffffffffff166115ce611313565b73ffffffffffffffffffffffffffffffffffffffff1614611624576040517f08c379a000000000000000000000000000000000000000000000000000000000815260040161161b90613587565b60405180910390fd5b8060108190555050565b606061163982611a5c565b611678576040517f08c379a000000000000000000000000000000000000000000000000000000000815260040161166f90613bc1565b60405180910390fd5b6000611682612179565b905060008151116116a257604051806020016040528060008152506116cd565b806116ac8461220b565b6040516020016116bd929190613c1d565b6040516020818303038152906040525b915050919050565b6116dd611ac8565b73ffffffffffffffffffffffffffffffffffffffff166116fb611313565b73ffffffffffffffffffffffffffffffffffffffff1614611751576040517f08c379a000000000000000000000000000000000000000000000000000000000815260040161174890613587565b60405180910390fd5b565b600f5481565b6000600560008473ffffffffffffffffffffffffffffffffffffffff1673ffffffffffffffffffffffffffffffffffffffff16815260200190815260200160002060008373ffffffffffffffffffffffffffffffffffffffff1673ffffffffffffffffffffffffffffffffffffffff16815260200190815260200160002060009054906101000a900460ff16905092915050565b6117f5611ac8565b73ffffffffffffffffffffffffffffffffffffffff16611813611313565b73ffffffffffffffffffffffffffffffffffffffff1614611869576040517f08c379a000000000000000000000000000000000000000000000000000000000815260040161186090613587565b60405180910390fd5b600073ffffffffffffffffffffffffffffffffffffffff168173ffffffffffffffffffffffffffffffffffffffff16036118d8576040517f08c379a00000000000000000000000000000000000000000000000000000000081526004016118cf90613cb3565b60405180910390fd5b6118e181611eeb565b50565b6118ec611ac8565b73ffffffffffffffffffffffffffffffffffffffff1661190a611313565b73ffffffffffffffffffffffffffffffffffffffff1614611960576040517f08c379a000000000000000000000000000000000000000000000000000000000815260040161195790613587565b60405180910390fd5b80600d9080519060200190611976929190612bd5565b5050565b60007f80ac58cd000000000000000000000000000000000000000000000000000000007bffffffffffffffffffffffffffffffffffffffffffffffffffffffff1916827bffffffffffffffffffffffffffffffffffffffffffffffffffffffff19161480611a4557507f5b5e139f000000000000000000000000000000000000000000000000000000007bffffffffffffffffffffffffffffffffffffffffffffffffffffffff1916827bffffffffffffffffffffffffffffffffffffffffffffffffffffffff1916145b80611a555750611a548261236b565b5b9050919050565b60008073ffffffffffffffffffffffffffffffffffffffff166002600084815260200190815260200160002060009054906101000a900473ffffffffffffffffffffffffffffffffffffffff1673ffffffffffffffffffffffffffffffffffffffff1614159050919050565b600033905090565b816004600083815260200190815260200160002060006101000a81548173ffffffffffffffffffffffffffffffffffffffff021916908373ffffffffffffffffffffffffffffffffffffffff160217905550808273ffffffffffffffffffffffffffffffffffffffff16611b4383610e6f565b73ffffffffffffffffffffffffffffffffffffffff167f8c5be1e5ebec7d5bd14f71427d1e84f3dd0314c0f7b2291e5b200ac8c7c3b92560405160405180910390a45050565b6000611b9482611a5c565b611bd3576040517f08c379a0000000000000000000000000000000000000000000000000000000008152600401611bca90613d45565b60405180910390fd5b6000611bde83610e6f565b90508073ffffffffffffffffffffffffffffffffffffffff168473ffffffffffffffffffffffffffffffffffffffff161480611c205750611c1f8185611759565b5b80611c5e57508373ffffffffffffffffffffffffffffffffffffffff16611c46846108bf565b73ffffffffffffffffffffffffffffffffffffffff16145b91505092915050565b8273ffffffffffffffffffffffffffffffffffffffff16611c8782610e6f565b73ffffffffffffffffffffffffffffffffffffffff1614611cdd576040517f08c379a0000000000000000000000000000000000000000000000000000000008152600401611cd490613dd7565b60405180910390fd5b600073ffffffffffffffffffffffffffffffffffffffff168273ffffffffffffffffffffffffffffffffffffffff1603611d4c576040517f08c379a0000000000000000000000000000000000000000000000000000000008152600401611d4390613e69565b60405180910390fd5b611d578383836123d5565b611d62600082611ad0565b6001600360008573ffffffffffffffffffffffffffffffffffffffff1673ffffffffffffffffffffffffffffffffffffffff1681526020019081526020016000206000828254611db29190613ac1565b925050819055506001600360008473ffffffffffffffffffffffffffffffffffffffff1673ffffffffffffffffffffffffffffffffffffffff1681526020019081526020016000206000828254611e099190613a23565b92505081905550816002600083815260200190815260200160002060006101000a81548173ffffffffffffffffffffffffffffffffffffffff021916908373ffffffffffffffffffffffffffffffffffffffff160217905550808273ffffffffffffffffffffffffffffffffffffffff168473ffffffffffffffffffffffffffffffffffffffff167fddf252ad1be2c89b69c2b068fc378daa952ba7f163c4a11628f55a4df523b3ef60405160405180910390a4611ec88383836124e7565b505050565b611ee78282604051806020016040528060008152506124ec565b5050565b6000600b60009054906101000a900473ffffffffffffffffffffffffffffffffffffffff16905081600b60006101000a81548173ffffffffffffffffffffffffffffffffffffffff021916908373ffffffffffffffffffffffffffffffffffffffff1602179055508173ffffffffffffffffffffffffffffffffffffffff168173ffffffffffffffffffffffffffffffffffffffff167f8be0079c531659141344cd1fd0a4f28419497f9722a3daafe3b4186f6b6457e060405160405180910390a35050565b8173ffffffffffffffffffffffffffffffffffffffff168373ffffffffffffffffffffffffffffffffffffffff160361201f576040517f08c379a000000000000000000000000000000000000000000000000000000000815260040161201690613ed5565b60405180910390fd5b80600560008573ffffffffffffffffffffffffffffffffffffffff1673ffffffffffffffffffffffffffffffffffffffff16815260200190815260200160002060008473ffffffffffffffffffffffffffffffffffffffff1673ffffffffffffffffffffffffffffffffffffffff16815260200190815260200160002060006101000a81548160ff0219169083151502179055508173ffffffffffffffffffffffffffffffffffffffff168373ffffffffffffffffffffffffffffffffffffffff167f17307eab39ab6107e8899845ad3d59bd9653f200f220920489ca2b5937696c31836040516121109190612d2c565b60405180910390a3505050565b612128848484611c67565b61213484848484612547565b612173576040517f08c379a000000000000000000000000000000000000000000000000000000000815260040161216a90613f67565b60405180910390fd5b50505050565b6060600c805461218890613354565b80601f01602080910402602001604051908101604052809291908181526020018280546121b490613354565b80156122015780601f106121d657610100808354040283529160200191612201565b820191906000526020600020905b8154815290600101906020018083116121e457829003601f168201915b5050505050905090565b606060008203612252576040518060400160405280600181526020017f30000000000000000000000000000000000000000000000000000000000000008152509050612366565b600082905060005b6000821461228457808061226d90613a79565b915050600a8261227d9190613fb6565b915061225a565b60008167ffffffffffffffff8111156122a05761229f612fb4565b5b6040519080825280601f01601f1916602001820160405280156122d25781602001600182028036833780820191505090505b5090505b6000851461235f576001826122eb9190613ac1565b9150600a856122fa9190613fe7565b60306123069190613a23565b60f81b81838151811061231c5761231b61375d565b5b60200101907effffffffffffffffffffffffffffffffffffffffffffffffffffffffffffff1916908160001a905350600a856123589190613fb6565b94506122d6565b8093505050505b919050565b60007f01ffc9a7000000000000000000000000000000000000000000000000000000007bffffffffffffffffffffffffffffffffffffffffffffffffffffffff1916827bffffffffffffffffffffffffffffffffffffffffffffffffffffffff1916149050919050565b6123e08383836126ce565b600073ffffffffffffffffffffffffffffffffffffffff168373ffffffffffffffffffffffffffffffffffffffff16036124225761241d816126d3565b612461565b8173ffffffffffffffffffffffffffffffffffffffff168373ffffffffffffffffffffffffffffffffffffffff16146124605761245f838261271c565b5b5b600073ffffffffffffffffffffffffffffffffffffffff168273ffffffffffffffffffffffffffffffffffffffff16036124a35761249e81612889565b6124e2565b8273ffffffffffffffffffffffffffffffffffffffff168273ffffffffffffffffffffffffffffffffffffffff16146124e1576124e0828261295a565b5b5b505050565b505050565b6124f683836129d9565b6125036000848484612547565b612542576040517f08c379a000000000000000000000000000000000000000000000000000000000815260040161253990613f67565b60405180910390fd5b505050565b60006125688473ffffffffffffffffffffffffffffffffffffffff16612bb2565b156126c1578373ffffffffffffffffffffffffffffffffffffffff1663150b7a02612591611ac8565b8786866040518563ffffffff1660e01b81526004016125b3949392919061406d565b6020604051808303816000875af19250505080156125ef57506040513d601f19601f820116820180604052508101906125ec91906140ce565b60015b612671573d806000811461261f576040519150601f19603f3d011682016040523d82523d6000602084013e612624565b606091505b506000815103612669576040517f08c379a000000000000000000000000000000000000000000000000000000000815260040161266090613f67565b60405180910390fd5b805181602001fd5b63150b7a0260e01b7bffffffffffffffffffffffffffffffffffffffffffffffffffffffff1916817bffffffffffffffffffffffffffffffffffffffffffffffffffffffff1916149150506126c6565b600190505b949350505050565b505050565b6008805490506009600083815260200190815260200160002081905550600881908060018154018082558091505060019003906000526020600020016000909190919091505550565b60006001612729846110c2565b6127339190613ac1565b9050600060076000848152602001908152602001600020549050818114612818576000600660008673ffffffffffffffffffffffffffffffffffffffff1673ffffffffffffffffffffffffffffffffffffffff168152602001908152602001600020600084815260200190815260200160002054905080600660008773ffffffffffffffffffffffffffffffffffffffff1673ffffffffffffffffffffffffffffffffffffffff168152602001908152602001600020600084815260200190815260200160002081905550816007600083815260200190815260200160002081905550505b6007600084815260200190815260200160002060009055600660008573ffffffffffffffffffffffffffffffffffffffff1673ffffffffffffffffffffffffffffffffffffffff16815260200190815260200160002060008381526020019081526020016000206000905550505050565b6000600160088054905061289d9190613ac1565b90506000600960008481526020019081526020016000205490506000600883815481106128cd576128cc61375d565b5b9060005260206000200154905080600883815481106128ef576128ee61375d565b5b90600052602060002001819055508160096000838152602001908152602001600020819055506009600085815260200190815260200160002060009055600880548061293e5761293d6140fb565b5b6001900381819060005260206000200160009055905550505050565b6000612965836110c2565b905081600660008573ffffffffffffffffffffffffffffffffffffffff1673ffffffffffffffffffffffffffffffffffffffff168152602001908152602001600020600083815260200190815260200160002081905550806007600084815260200190815260200160002081905550505050565b600073ffffffffffffffffffffffffffffffffffffffff168273ffffffffffffffffffffffffffffffffffffffff1603612a48576040517f08c379a0000000000000000000000000000000000000000000000000000000008152600401612a3f90614176565b60405180910390fd5b612a5181611a5c565b15612a91576040517f08c379a0000000000000000000000000000000000000000000000000000000008152600401612a88906141e2565b60405180910390fd5b612a9d600083836123d5565b6001600360008473ffffffffffffffffffffffffffffffffffffffff1673ffffffffffffffffffffffffffffffffffffffff1681526020019081526020016000206000828254612aed9190613a23565b92505081905550816002600083815260200190815260200160002060006101000a81548173ffffffffffffffffffffffffffffffffffffffff021916908373ffffffffffffffffffffffffffffffffffffffff160217905550808273ffffffffffffffffffffffffffffffffffffffff16600073ffffffffffffffffffffffffffffffffffffffff167fddf252ad1be2c89b69c2b068fc378daa952ba7f163c4a11628f55a4df523b3ef60405160405180910390a4612bae600083836124e7565b5050565b6000808273ffffffffffffffffffffffffffffffffffffffff163b119050919050565b828054612be190613354565b90600052602060002090601f016020900481019282612c035760008555612c4a565b82601f10612c1c57805160ff1916838001178555612c4a565b82800160010185558215612c4a579182015b82811115612c49578251825591602001919060010190612c2e565b5b509050612c579190612c5b565b5090565b5b80821115612c74576000816000905550600101612c5c565b5090565b6000604051905090565b600080fd5b600080fd5b60007fffffffff0000000000000000000000000000000000000000000000000000000082169050919050565b612cc181612c8c565b8114612ccc57600080fd5b50565b600081359050612cde81612cb8565b92915050565b600060208284031215612cfa57612cf9612c82565b5b6000612d0884828501612ccf565b91505092915050565b60008115159050919050565b612d2681612d11565b82525050565b6000602082019050612d416000830184612d1d565b92915050565b600081519050919050565b600082825260208201905092915050565b60005b83811015612d81578082015181840152602081019050612d66565b83811115612d90576000848401525b50505050565b6000601f19601f8301169050919050565b6000612db282612d47565b612dbc8185612d52565b9350612dcc818560208601612d63565b612dd581612d96565b840191505092915050565b60006020820190508181036000830152612dfa8184612da7565b905092915050565b6000819050919050565b612e1581612e02565b8114612e2057600080fd5b50565b600081359050612e3281612e0c565b92915050565b600060208284031215612e4e57612e4d612c82565b5b6000612e5c84828501612e23565b91505092915050565b600073ffffffffffffffffffffffffffffffffffffffff82169050919050565b6000612e9082612e65565b9050919050565b612ea081612e85565b82525050565b6000602082019050612ebb6000830184612e97565b92915050565b612eca81612e85565b8114612ed557600080fd5b50565b600081359050612ee781612ec1565b92915050565b60008060408385031215612f0457612f03612c82565b5b6000612f1285828601612ed8565b9250506020612f2385828601612e23565b9150509250929050565b612f3681612e02565b82525050565b6000602082019050612f516000830184612f2d565b92915050565b600080600060608486031215612f7057612f6f612c82565b5b6000612f7e86828701612ed8565b9350506020612f8f86828701612ed8565b9250506040612fa086828701612e23565b9150509250925092565b600080fd5b600080fd5b7f4e487b7100000000000000000000000000000000000000000000000000000000600052604160045260246000fd5b612fec82612d96565b810181811067ffffffffffffffff8211171561300b5761300a612fb4565b5b80604052505050565b600061301e612c78565b905061302a8282612fe3565b919050565b600067ffffffffffffffff82111561304a57613049612fb4565b5b61305382612d96565b9050602081019050919050565b82818337600083830152505050565b600061308261307d8461302f565b613014565b90508281526020810184848401111561309e5761309d612faf565b5b6130a9848285613060565b509392505050565b600082601f8301126130c6576130c5612faa565b5b81356130d684826020860161306f565b91505092915050565b6000602082840312156130f5576130f4612c82565b5b600082013567ffffffffffffffff81111561311357613112612c87565b5b61311f848285016130b1565b91505092915050565b60006020828403121561313e5761313d612c82565b5b600061314c84828501612ed8565b91505092915050565b61315e81612d11565b811461316957600080fd5b50565b60008135905061317b81613155565b92915050565b6000806040838503121561319857613197612c82565b5b60006131a685828601612ed8565b92505060206131b78582860161316c565b9150509250929050565b600067ffffffffffffffff8211156131dc576131db612fb4565b5b6131e582612d96565b9050602081019050919050565b6000613205613200846131c1565b613014565b90508281526020810184848401111561322157613220612faf565b5b61322c848285613060565b509392505050565b600082601f83011261324957613248612faa565b5b81356132598482602086016131f2565b91505092915050565b6000806000806080858703121561327c5761327b612c82565b5b600061328a87828801612ed8565b945050602061329b87828801612ed8565b93505060406132ac87828801612e23565b925050606085013567ffffffffffffffff8111156132cd576132cc612c87565b5b6132d987828801613234565b91505092959194509250565b600080604083850312156132fc576132fb612c82565b5b600061330a85828601612ed8565b925050602061331b85828601612ed8565b9150509250929050565b7f4e487b7100000000000000000000000000000000000000000000000000000000600052602260045260246000fd5b6000600282049050600182168061336c57607f821691505b60208210810361337f5761337e613325565b5b50919050565b7f4552433732313a20617070726f76656420717565727920666f72206e6f6e657860008201527f697374656e7420746f6b656e0000000000000000000000000000000000000000602082015250565b60006133e1602c83612d52565b91506133ec82613385565b604082019050919050565b60006020820190508181036000830152613410816133d4565b9050919050565b7f4552433732313a20617070726f76616c20746f2063757272656e74206f776e6560008201527f7200000000000000000000000000000000000000000000000000000000000000602082015250565b6000613473602183612d52565b915061347e82613417565b604082019050919050565b600060208201905081810360008301526134a281613466565b9050919050565b7f4552433732313a20617070726f76652063616c6c6572206973206e6f74206f7760008201527f6e6572206e6f7220617070726f76656420666f7220616c6c0000000000000000602082015250565b6000613505603883612d52565b9150613510826134a9565b604082019050919050565b60006020820190508181036000830152613534816134f8565b9050919050565b7f4f776e61626c653a2063616c6c6572206973206e6f7420746865206f776e6572600082015250565b6000613571602083612d52565b915061357c8261353b565b602082019050919050565b600060208201905081810360008301526135a081613564565b9050919050565b7f4552433732313a207472616e736665722063616c6c6572206973206e6f74206f60008201527f776e6572206e6f7220617070726f766564000000000000000000000000000000602082015250565b6000613603603183612d52565b915061360e826135a7565b604082019050919050565b60006020820190508181036000830152613632816135f6565b9050919050565b7f455243373231456e756d657261626c653a206f776e657220696e646578206f7560008201527f74206f6620626f756e6473000000000000000000000000000000000000000000602082015250565b6000613695602b83612d52565b91506136a082613639565b604082019050919050565b600060208201905081810360008301526136c481613688565b9050919050565b7f455243373231456e756d657261626c653a20676c6f62616c20696e646578206f60008201527f7574206f6620626f756e64730000000000000000000000000000000000000000602082015250565b6000613727602c83612d52565b9150613732826136cb565b604082019050919050565b600060208201905081810360008301526137568161371a565b9050919050565b7f4e487b7100000000000000000000000000000000000000000000000000000000600052603260045260246000fd5b7f4552433732313a206f776e657220717565727920666f72206e6f6e657869737460008201527f656e7420746f6b656e0000000000000000000000000000000000000000000000602082015250565b60006137e8602983612d52565b91506137f38261378c565b604082019050919050565b60006020820190508181036000830152613817816137db565b9050919050565b7f4552433732313a2062616c616e636520717565727920666f7220746865207a6560008201527f726f206164647265737300000000000000000000000000000000000000000000602082015250565b600061387a602a83612d52565b91506138858261381e565b604082019050919050565b600060208201905081810360008301526138a98161386d565b9050919050565b7f5265656e7472616e637947756172643a207265656e7472616e742063616c6c00600082015250565b60006138e6601f83612d52565b91506138f1826138b0565b602082019050919050565b60006020820190508181036000830152613915816138d9565b9050919050565b7f416e696d613a204d617820537570706c79207265616368656400000000000000600082015250565b6000613952601983612d52565b915061395d8261391c565b602082019050919050565b6000602082019050818103600083015261398181613945565b9050919050565b7f416e696d613a2056616c7565203c207072696365000000000000000000000000600082015250565b60006139be601483612d52565b91506139c982613988565b602082019050919050565b600060208201905081810360008301526139ed816139b1565b9050919050565b7f4e487b7100000000000000000000000000000000000000000000000000000000600052601160045260246000fd5b6000613a2e82612e02565b9150613a3983612e02565b9250827fffffffffffffffffffffffffffffffffffffffffffffffffffffffffffffffff03821115613a6e57613a6d6139f4565b5b828201905092915050565b6000613a8482612e02565b91507fffffffffffffffffffffffffffffffffffffffffffffffffffffffffffffffff8203613ab657613ab56139f4565b5b600182019050919050565b6000613acc82612e02565b9150613ad783612e02565b925082821015613aea57613ae96139f4565b5b828203905092915050565b6000613b0082612e02565b9150613b0b83612e02565b9250817fffffffffffffffffffffffffffffffffffffffffffffffffffffffffffffffff0483118215151615613b4457613b436139f4565b5b828202905092915050565b7f4552433732314d657461646174613a2055524920717565727920666f72206e6f60008201527f6e6578697374656e7420746f6b656e0000000000000000000000000000000000602082015250565b6000613bab602f83612d52565b9150613bb682613b4f565b604082019050919050565b60006020820190508181036000830152613bda81613b9e565b9050919050565b600081905092915050565b6000613bf782612d47565b613c018185613be1565b9350613c11818560208601612d63565b80840191505092915050565b6000613c298285613bec565b9150613c358284613bec565b91508190509392505050565b7f4f776e61626c653a206e6577206f776e657220697320746865207a65726f206160008201527f6464726573730000000000000000000000000000000000000000000000000000602082015250565b6000613c9d602683612d52565b9150613ca882613c41565b604082019050919050565b60006020820190508181036000830152613ccc81613c90565b9050919050565b7f4552433732313a206f70657261746f7220717565727920666f72206e6f6e657860008201527f697374656e7420746f6b656e0000000000000000000000000000000000000000602082015250565b6000613d2f602c83612d52565b9150613d3a82613cd3565b604082019050919050565b60006020820190508181036000830152613d5e81613d22565b9050919050565b7f4552433732313a207472616e736665722066726f6d20696e636f72726563742060008201527f6f776e6572000000000000000000000000000000000000000000000000000000602082015250565b6000613dc1602583612d52565b9150613dcc82613d65565b604082019050919050565b60006020820190508181036000830152613df081613db4565b9050919050565b7f4552433732313a207472616e7366657220746f20746865207a65726f2061646460008201527f7265737300000000000000000000000000000000000000000000000000000000602082015250565b6000613e53602483612d52565b9150613e5e82613df7565b604082019050919050565b60006020820190508181036000830152613e8281613e46565b9050919050565b7f4552433732313a20617070726f766520746f2063616c6c657200000000000000600082015250565b6000613ebf601983612d52565b9150613eca82613e89565b602082019050919050565b60006020820190508181036000830152613eee81613eb2565b9050919050565b7f4552433732313a207472616e7366657220746f206e6f6e20455243373231526560008201527f63656976657220696d706c656d656e7465720000000000000000000000000000602082015250565b6000613f51603283612d52565b9150613f5c82613ef5565b604082019050919050565b60006020820190508181036000830152613f8081613f44565b9050919050565b7f4e487b7100000000000000000000000000000000000000000000000000000000600052601260045260246000fd5b6000613fc182612e02565b9150613fcc83612e02565b925082613fdc57613fdb613f87565b5b828204905092915050565b6000613ff282612e02565b9150613ffd83612e02565b92508261400d5761400c613f87565b5b828206905092915050565b600081519050919050565b600082825260208201905092915050565b600061403f82614018565b6140498185614023565b9350614059818560208601612d63565b61406281612d96565b840191505092915050565b60006080820190506140826000830187612e97565b61408f6020830186612e97565b61409c6040830185612f2d565b81810360608301526140ae8184614034565b905095945050505050565b6000815190506140c881612cb8565b92915050565b6000602082840312156140e4576140e3612c82565b5b60006140f2848285016140b9565b91505092915050565b7f4e487b7100000000000000000000000000000000000000000000000000000000600052603160045260246000fd5b7f4552433732313a206d696e7420746f20746865207a65726f2061646472657373600082015250565b6000614160602083612d52565b915061416b8261412a565b602082019050919050565b6000602082019050818103600083015261418f81614153565b9050919050565b7f4552433732313a20746f6b656e20616c7265616479206d696e74656400000000600082015250565b60006141cc601c83612d52565b91506141d782614196565b602082019050919050565b600060208201905081810360008301526141fb816141bf565b905091905056fea264697066735822122071f46241dea9fdb9b95f3d9ad2404efdcc48abb728ad2982165b71c473537cd064736f6c634300080d0033",
  "immutableReferences": {},
  "source": "// SPDX-License-Identifier: Unlicensed\npragma solidity ^0.8.10;\n\nimport \"@openzeppelin/contracts/token/ERC721/ERC721.sol\";\nimport \"@openzeppelin/contracts/access/Ownable.sol\";\nimport \"@openzeppelin/contracts/security/ReentrancyGuard.sol\";\nimport \"@openzeppelin/contracts/token/ERC721/extensions/ERC721Enumerable.sol\";\n\n\ncontract Collection2 is ERC721Enumerable, ReentrancyGuard, Ownable {\n    string public baseURI;\n\n\n    \n    string public PROVENANCE = \"\";\n    uint256 public lastId = 0;\n    uint256 public maxSupply = 10000;\n    uint256 public publicPrice = 150000000000000000; //0.15 ETH\n    \n\n    constructor() ERC721(\"Collection2\", \"COL2\") {}\n\n    function withdraw() public onlyOwner {\n        uint256 balance = address(this).balance;\n        payable(msg.sender).transfer(balance);\n    }\n\n    function deposit() public payable onlyOwner {}\n\n\n    function setPublicPrice(uint256 _newPrice) public onlyOwner {\n        publicPrice = _newPrice;\n    }\n\n    function setMaxSupply(uint256 _newMax) public onlyOwner {\n        maxSupply = _newMax;\n    }\n\n    function setLastId(uint256 _newLastId) public onlyOwner {\n        lastId = _newLastId;\n    }\n\n     function _baseURI() internal view override returns (string memory) {\n        return baseURI;\n    }\n\n    function setBaseURI(string memory _newBaseURI) public onlyOwner {\n        baseURI = _newBaseURI;\n    }\n\n     function setProvenance(string memory _prov) public onlyOwner {\n        PROVENANCE = _prov;\n    }\n\n\n    function mintPublic() public payable nonReentrant {\n        require(lastId < maxSupply, \"Anima: Max Supply reached\");\n        require(msg.value >= publicPrice, \"Anima: Value < price\");\n        _safeMint(msg.sender, lastId + 1);\n\n        lastId++;\n    }\n\n    function multiMint(uint256 _amount) public payable nonReentrant {\n        require((maxSupply - lastId) >= _amount, \"Anima: Max Supply reached\");\n        require(msg.value >= (publicPrice * _amount), \"Anima: Value < price\");\n        \n        for (uint256 i=0; i<_amount; i++) {\n            _safeMint(msg.sender, lastId + 1 + i);\n        }\n\n        lastId+=_amount;\n    }\n\n    function mintTo(address _receiver, uint256 _tokenId) public onlyOwner {\n        _safeMint(_receiver, _tokenId);\n    }\n}",
  "sourcePath": "/home/rebus2/Desktop/solidity_learning/EtherArena/contracts/Collection2.sol",
  "compiler": {
    "name": "solc",
    "version": "0.8.13+commit.abaa5c0e.Emscripten.clang"
  },
  "schemaVersion": "3.4.7",
  "updatedAt": "2022-05-11T19:24:17.208Z",
  "networkType": "ethereum",
  "devdoc": {
    "kind": "dev",
    "methods": {
      "approve(address,uint256)": {
        "details": "See {IERC721-approve}."
      },
      "balanceOf(address)": {
        "details": "See {IERC721-balanceOf}."
      },
      "getApproved(uint256)": {
        "details": "See {IERC721-getApproved}."
      },
      "isApprovedForAll(address,address)": {
        "details": "See {IERC721-isApprovedForAll}."
      },
      "name()": {
        "details": "See {IERC721Metadata-name}."
      },
      "owner()": {
        "details": "Returns the address of the current owner."
      },
      "ownerOf(uint256)": {
        "details": "See {IERC721-ownerOf}."
      },
      "renounceOwnership()": {
        "details": "Leaves the contract without owner. It will not be possible to call `onlyOwner` functions anymore. Can only be called by the current owner. NOTE: Renouncing ownership will leave the contract without an owner, thereby removing any functionality that is only available to the owner."
      },
      "safeTransferFrom(address,address,uint256)": {
        "details": "See {IERC721-safeTransferFrom}."
      },
      "safeTransferFrom(address,address,uint256,bytes)": {
        "details": "See {IERC721-safeTransferFrom}."
      },
      "setApprovalForAll(address,bool)": {
        "details": "See {IERC721-setApprovalForAll}."
      },
      "supportsInterface(bytes4)": {
        "details": "See {IERC165-supportsInterface}."
      },
      "symbol()": {
        "details": "See {IERC721Metadata-symbol}."
      },
      "tokenByIndex(uint256)": {
        "details": "See {IERC721Enumerable-tokenByIndex}."
      },
      "tokenOfOwnerByIndex(address,uint256)": {
        "details": "See {IERC721Enumerable-tokenOfOwnerByIndex}."
      },
      "tokenURI(uint256)": {
        "details": "See {IERC721Metadata-tokenURI}."
      },
      "totalSupply()": {
        "details": "See {IERC721Enumerable-totalSupply}."
      },
      "transferFrom(address,address,uint256)": {
        "details": "See {IERC721-transferFrom}."
      },
      "transferOwnership(address)": {
        "details": "Transfers ownership of the contract to a new account (`newOwner`). Can only be called by the current owner."
      }
    },
    "version": 1
  },
  "userdoc": {
    "kind": "user",
    "methods": {},
    "version": 1
  }
}