{
  "contractName": "ERC721Staking",
  "abi": [
    {
      "inputs": [
        {
          "internalType": "address",
          "name": "_stakingToken",
          "type": "address"
        }
      ],
      "stateMutability": "nonpayable",
      "type": "constructor"
    },
    {
      "anonymous": false,
      "inputs": [
        {
          "indexed": false,
          "internalType": "uint256",
          "name": "challenger",
          "type": "uint256"
        },
        {
          "indexed": false,
          "internalType": "uint256",
          "name": "challenged",
          "type": "uint256"
        }
      ],
      "name": "BattleInitiates",
      "type": "event"
    },
    {
      "anonymous": false,
      "inputs": [
        {
          "indexed": false,
          "internalType": "uint256",
          "name": "tokenId",
          "type": "uint256"
        },
        {
          "indexed": false,
          "internalType": "address",
          "name": "champCollection",
          "type": "address"
        },
        {
          "indexed": false,
          "internalType": "uint256",
          "name": "champID",
          "type": "uint256"
        }
      ],
      "name": "InviteChamp",
      "type": "event"
    },
    {
      "anonymous": false,
      "inputs": [
        {
          "indexed": true,
          "internalType": "address",
          "name": "previousOwner",
          "type": "address"
        },
        {
          "indexed": true,
          "internalType": "address",
          "name": "newOwner",
          "type": "address"
        }
      ],
      "name": "OwnershipTransferred",
      "type": "event"
    },
    {
      "anonymous": false,
      "inputs": [
        {
          "indexed": false,
          "internalType": "address",
          "name": "account",
          "type": "address"
        }
      ],
      "name": "Paused",
      "type": "event"
    },
    {
      "anonymous": false,
      "inputs": [
        {
          "indexed": true,
          "internalType": "address",
          "name": "user",
          "type": "address"
        },
        {
          "indexed": false,
          "internalType": "uint256",
          "name": "amount",
          "type": "uint256"
        },
        {
          "indexed": false,
          "internalType": "uint256[]",
          "name": "tokenIds",
          "type": "uint256[]"
        }
      ],
      "name": "Staked",
      "type": "event"
    },
    {
      "anonymous": false,
      "inputs": [
        {
          "indexed": false,
          "internalType": "address",
          "name": "account",
          "type": "address"
        }
      ],
      "name": "Unpaused",
      "type": "event"
    },
    {
      "anonymous": false,
      "inputs": [
        {
          "indexed": true,
          "internalType": "address",
          "name": "user",
          "type": "address"
        },
        {
          "indexed": false,
          "internalType": "uint256",
          "name": "amount",
          "type": "uint256"
        },
        {
          "indexed": false,
          "internalType": "uint256[]",
          "name": "tokenIds",
          "type": "uint256[]"
        }
      ],
      "name": "Withdrawn",
      "type": "event"
    },
    {
      "inputs": [
        {
          "internalType": "uint256",
          "name": "",
          "type": "uint256"
        }
      ],
      "name": "animaToChampStruct",
      "outputs": [
        {
          "internalType": "address",
          "name": "champCollection",
          "type": "address"
        },
        {
          "internalType": "uint256",
          "name": "champID",
          "type": "uint256"
        },
        {
          "internalType": "uint256",
          "name": "lastAction",
          "type": "uint256"
        },
        {
          "internalType": "uint256",
          "name": "inBattleWith",
          "type": "uint256"
        },
        {
          "internalType": "int256",
          "name": "hp",
          "type": "int256"
        },
        {
          "internalType": "uint256",
          "name": "astralBlessings",
          "type": "uint256"
        }
      ],
      "stateMutability": "view",
      "type": "function"
    },
    {
      "inputs": [
        {
          "internalType": "uint256",
          "name": "",
          "type": "uint256"
        }
      ],
      "name": "animaToLastBlessing",
      "outputs": [
        {
          "internalType": "uint256",
          "name": "",
          "type": "uint256"
        }
      ],
      "stateMutability": "view",
      "type": "function"
    },
    {
      "inputs": [
        {
          "internalType": "uint256",
          "name": "",
          "type": "uint256"
        }
      ],
      "name": "animaToLastInvite",
      "outputs": [
        {
          "internalType": "uint256",
          "name": "",
          "type": "uint256"
        }
      ],
      "stateMutability": "view",
      "type": "function"
    },
    {
      "inputs": [
        {
          "internalType": "address",
          "name": "",
          "type": "address"
        }
      ],
      "name": "balances",
      "outputs": [
        {
          "internalType": "uint256",
          "name": "",
          "type": "uint256"
        }
      ],
      "stateMutability": "view",
      "type": "function"
    },
    {
      "inputs": [
        {
          "internalType": "address",
          "name": "",
          "type": "address"
        },
        {
          "internalType": "uint256",
          "name": "",
          "type": "uint256"
        }
      ],
      "name": "championsToAnima",
      "outputs": [
        {
          "internalType": "uint256",
          "name": "",
          "type": "uint256"
        }
      ],
      "stateMutability": "view",
      "type": "function"
    },
    {
      "inputs": [],
      "name": "lastUpdateTime",
      "outputs": [
        {
          "internalType": "uint256",
          "name": "",
          "type": "uint256"
        }
      ],
      "stateMutability": "view",
      "type": "function"
    },
    {
      "inputs": [
        {
          "internalType": "address",
          "name": "",
          "type": "address"
        },
        {
          "internalType": "address",
          "name": "",
          "type": "address"
        },
        {
          "internalType": "uint256",
          "name": "",
          "type": "uint256"
        },
        {
          "internalType": "bytes",
          "name": "",
          "type": "bytes"
        }
      ],
      "name": "onERC721Received",
      "outputs": [
        {
          "internalType": "bytes4",
          "name": "",
          "type": "bytes4"
        }
      ],
      "stateMutability": "nonpayable",
      "type": "function"
    },
    {
      "inputs": [],
      "name": "owner",
      "outputs": [
        {
          "internalType": "address",
          "name": "",
          "type": "address"
        }
      ],
      "stateMutability": "view",
      "type": "function"
    },
    {
      "inputs": [],
      "name": "paused",
      "outputs": [
        {
          "internalType": "bool",
          "name": "",
          "type": "bool"
        }
      ],
      "stateMutability": "view",
      "type": "function"
    },
    {
      "inputs": [],
      "name": "periodFinish",
      "outputs": [
        {
          "internalType": "uint256",
          "name": "",
          "type": "uint256"
        }
      ],
      "stateMutability": "view",
      "type": "function"
    },
    {
      "inputs": [],
      "name": "renounceOwnership",
      "outputs": [],
      "stateMutability": "nonpayable",
      "type": "function"
    },
    {
      "inputs": [
        {
          "internalType": "uint256",
          "name": "",
          "type": "uint256"
        }
      ],
      "name": "stakedAssets",
      "outputs": [
        {
          "internalType": "address",
          "name": "",
          "type": "address"
        }
      ],
      "stateMutability": "view",
      "type": "function"
    },
    {
      "inputs": [],
      "name": "stakingToken",
      "outputs": [
        {
          "internalType": "contract IERC721",
          "name": "",
          "type": "address"
        }
      ],
      "stateMutability": "view",
      "type": "function"
    },
    {
      "inputs": [],
      "name": "totalSupply",
      "outputs": [
        {
          "internalType": "uint256",
          "name": "",
          "type": "uint256"
        }
      ],
      "stateMutability": "view",
      "type": "function"
    },
    {
      "inputs": [
        {
          "internalType": "address",
          "name": "newOwner",
          "type": "address"
        }
      ],
      "name": "transferOwnership",
      "outputs": [],
      "stateMutability": "nonpayable",
      "type": "function"
    },
    {
      "inputs": [
        {
          "internalType": "uint256[]",
          "name": "tokenIds",
          "type": "uint256[]"
        }
      ],
      "name": "stake",
      "outputs": [],
      "stateMutability": "nonpayable",
      "type": "function"
    },
    {
      "inputs": [
        {
          "internalType": "uint256[]",
          "name": "tokenIds",
          "type": "uint256[]"
        }
      ],
      "name": "withdraw",
      "outputs": [],
      "stateMutability": "nonpayable",
      "type": "function"
    },
    {
      "inputs": [
        {
          "internalType": "uint256[]",
          "name": "tokenIds",
          "type": "uint256[]"
        }
      ],
      "name": "exit",
      "outputs": [],
      "stateMutability": "nonpayable",
      "type": "function"
    },
    {
      "inputs": [
        {
          "internalType": "uint256",
          "name": "_tokenId",
          "type": "uint256"
        },
        {
          "internalType": "address",
          "name": "_champCollection",
          "type": "address"
        },
        {
          "internalType": "uint256",
          "name": "_champId",
          "type": "uint256"
        }
      ],
      "name": "inviteChamp",
      "outputs": [],
      "stateMutability": "nonpayable",
      "type": "function"
    },
    {
      "inputs": [
        {
          "internalType": "uint256",
          "name": "_tokenId",
          "type": "uint256"
        },
        {
          "internalType": "uint256",
          "name": "_targetId",
          "type": "uint256"
        }
      ],
      "name": "blessChamp",
      "outputs": [],
      "stateMutability": "nonpayable",
      "type": "function"
    },
    {
      "inputs": [
        {
          "internalType": "uint256",
          "name": "_sponsoringAnima",
          "type": "uint256"
        },
        {
          "internalType": "uint256",
          "name": "_targetAnima",
          "type": "uint256"
        }
      ],
      "name": "initiateBattleWith",
      "outputs": [],
      "stateMutability": "nonpayable",
      "type": "function"
    },
    {
      "inputs": [
        {
          "internalType": "uint256",
          "name": "_sponsoringAnima",
          "type": "uint256"
        },
        {
          "internalType": "uint256",
          "name": "_targetAnima",
          "type": "uint256"
        }
      ],
      "name": "attack",
      "outputs": [],
      "stateMutability": "nonpayable",
      "type": "function"
    }
  ],
  "bytecode": "0x608060405260006003553480156200001657600080fd5b506040516200285a3803806200285a83398181016040528101906200003c9190620001ff565b60016000819055506200006462000058620000c760201b60201c565b620000cf60201b60201c565b6000600160146101000a81548160ff02191690831515021790555080600260006101000a81548173ffffffffffffffffffffffffffffffffffffffff021916908373ffffffffffffffffffffffffffffffffffffffff1602179055505062000231565b600033905090565b6000600160009054906101000a900473ffffffffffffffffffffffffffffffffffffffff16905081600160006101000a81548173ffffffffffffffffffffffffffffffffffffffff021916908373ffffffffffffffffffffffffffffffffffffffff1602179055508173ffffffffffffffffffffffffffffffffffffffff168173ffffffffffffffffffffffffffffffffffffffff167f8be0079c531659141344cd1fd0a4f28419497f9722a3daafe3b4186f6b6457e060405160405180910390a35050565b600080fd5b600073ffffffffffffffffffffffffffffffffffffffff82169050919050565b6000620001c7826200019a565b9050919050565b620001d981620001ba565b8114620001e557600080fd5b50565b600081519050620001f981620001ce565b92915050565b60006020828403121562000218576200021762000195565b5b60006200022884828501620001e8565b91505092915050565b61261980620002416000396000f3fe608060405234801561001057600080fd5b50600436106101425760003560e01c80638da5cb5b116100b8578063c17e06ea1161007c578063c17e06ea1461037a578063c8f33c91146103aa578063e1fa7638146103c8578063ebe2b12b146103e4578063f2fde38b14610402578063f9aba9261461041e57610142565b80638da5cb5b146102bf578063983d95ce146102dd5780639aaaa807146102f9578063af71539814610329578063b65272601461035e57610142565b8063255201401161010a57806325520140146101e957806327e235e3146102195780635c975abb14610249578063715018a61461026757806372f702f3146102715780637d8fc88e1461028f57610142565b80630ae96420146101475780630fbf0a9314610163578063150b7a021461017f57806318160ddd146101af57806318c08f26146101cd575b600080fd5b610161600480360381019061015c919061170d565b61043a565b005b61017d600480360381019061017891906118a6565b61062a565b005b61019960048036038101906101949190611a02565b61086c565b6040516101a69190611ac0565b60405180910390f35b6101b7610880565b6040516101c49190611aea565b60405180910390f35b6101e760048036038101906101e291906118a6565b610886565b005b61020360048036038101906101fe9190611b05565b610892565b6040516102109190611aea565b60405180910390f35b610233600480360381019061022e9190611b45565b6108b7565b6040516102409190611aea565b60405180910390f35b6102516108cf565b60405161025e9190611b8d565b60405180910390f35b61026f6108e6565b005b61027961096e565b6040516102869190611c07565b60405180910390f35b6102a960048036038101906102a49190611c22565b610994565b6040516102b69190611c5e565b60405180910390f35b6102c76109c7565b6040516102d49190611c5e565b60405180910390f35b6102f760048036038101906102f291906118a6565b6109f1565b005b610313600480360381019061030e9190611c22565b610d19565b6040516103209190611aea565b60405180910390f35b610343600480360381019061033e9190611c22565b610d31565b60405161035596959493929190611c92565b60405180910390f35b61037860048036038101906103739190611cf3565b610d8d565b005b610394600480360381019061038f9190611c22565b610fd8565b6040516103a19190611aea565b60405180910390f35b6103b2610ff0565b6040516103bf9190611aea565b60405180910390f35b6103e260048036038101906103dd919061170d565b610ff6565b005b6103ec611186565b6040516103f99190611aea565b60405180910390f35b61041c60048036038101906104179190611b45565b61118c565b005b6104386004803603810190610433919061170d565b611283565b005b3373ffffffffffffffffffffffffffffffffffffffff166007600084815260200190815260200160002060009054906101000a900473ffffffffffffffffffffffffffffffffffffffff1673ffffffffffffffffffffffffffffffffffffffff16146104db576040517f08c379a00000000000000000000000000000000000000000000000000000000081526004016104d290611dc9565b60405180910390fd5b620151806009600084815260200190815260200160002054426104fe9190611e18565b1161053e576040517f08c379a000000000000000000000000000000000000000000000000000000000815260040161053590611e98565b60405180910390fd5b600073ffffffffffffffffffffffffffffffffffffffff166007600084815260200190815260200160002060009054906101000a900473ffffffffffffffffffffffffffffffffffffffff1673ffffffffffffffffffffffffffffffffffffffff16036105e0576040517f08c379a00000000000000000000000000000000000000000000000000000000081526004016105d790611f04565b60405180910390fd5b4260096000848152602001908152602001600020819055506001600b6000838152602001908152602001600020600501600082825461061f9190611f24565b925050819055505050565b60026000540361066f576040517f08c379a000000000000000000000000000000000000000000000000000000000815260040161066690611fc6565b60405180910390fd5b600260008190555060008151036106bb576040517f08c379a00000000000000000000000000000000000000000000000000000000081526004016106b290612032565b60405180910390fd5b600080600090505b825181101561080657600260009054906101000a900473ffffffffffffffffffffffffffffffffffffffff1673ffffffffffffffffffffffffffffffffffffffff166342842e0e333086858151811061071f5761071e612052565b5b60200260200101516040518463ffffffff1660e01b815260040161074593929190612081565b600060405180830381600087803b15801561075f57600080fd5b505af1158015610773573d6000803e3d6000fd5b505050506001826107849190611f24565b9150336007600085848151811061079e5761079d612052565b5b6020026020010151815260200190815260200160002060006101000a81548173ffffffffffffffffffffffffffffffffffffffff021916908373ffffffffffffffffffffffffffffffffffffffff1602179055506001816107ff9190611f24565b90506106c3565b5061081081611511565b3373ffffffffffffffffffffffffffffffffffffffff167fb18ab713c223cf8d1394fb3018faad3e87f34414cc9d74b6eff3510d05359d858284604051610858929190612176565b60405180910390a250600160008190555050565b600063150b7a0260e01b9050949350505050565b60055481565b61088f816109f1565b50565b600a602052816000526040600020602052806000526040600020600091509150505481565b60066020528060005260406000206000915090505481565b6000600160149054906101000a900460ff16905090565b6108ee611583565b73ffffffffffffffffffffffffffffffffffffffff1661090c6109c7565b73ffffffffffffffffffffffffffffffffffffffff1614610962576040517f08c379a0000000000000000000000000000000000000000000000000000000008152600401610959906121f2565b60405180910390fd5b61096c600061158b565b565b600260009054906101000a900473ffffffffffffffffffffffffffffffffffffffff1681565b60076020528060005260406000206000915054906101000a900473ffffffffffffffffffffffffffffffffffffffff1681565b6000600160009054906101000a900473ffffffffffffffffffffffffffffffffffffffff16905090565b6000815103610a35576040517f08c379a0000000000000000000000000000000000000000000000000000000008152600401610a2c90612032565b60405180910390fd5b600080600090505b8251811015610cbb573373ffffffffffffffffffffffffffffffffffffffff1660076000858481518110610a7457610a73612052565b5b6020026020010151815260200190815260200160002060009054906101000a900473ffffffffffffffffffffffffffffffffffffffff1673ffffffffffffffffffffffffffffffffffffffff1614610b01576040517f08c379a0000000000000000000000000000000000000000000000000000000008152600401610af890612284565b60405180910390fd5b600260009054906101000a900473ffffffffffffffffffffffffffffffffffffffff1673ffffffffffffffffffffffffffffffffffffffff166342842e0e3033868581518110610b5457610b53612052565b5b60200260200101516040518463ffffffff1660e01b8152600401610b7a93929190612081565b600060405180830381600087803b158015610b9457600080fd5b505af1158015610ba8573d6000803e3d6000fd5b50505050600182610bb99190611f24565b9150600060076000858481518110610bd457610bd3612052565b5b6020026020010151815260200190815260200160002060006101000a81548173ffffffffffffffffffffffffffffffffffffffff021916908373ffffffffffffffffffffffffffffffffffffffff160217905550600b6000848381518110610c3f57610c3e612052565b5b60200260200101518152602001908152602001600020600080820160006101000a81549073ffffffffffffffffffffffffffffffffffffffff0219169055600182016000905560028201600090556003820160009055600482016000905560058201600090555050600181610cb49190611f24565b9050610a3d565b50610cc581611651565b3373ffffffffffffffffffffffffffffffffffffffff167fd40a9786b597b88b3426158112e3930e09cb031c138a150e367cfe17ff20e3028284604051610d0d929190612176565b60405180910390a25050565b60086020528060005260406000206000915090505481565b600b6020528060005260406000206000915090508060000160009054906101000a900473ffffffffffffffffffffffffffffffffffffffff16908060010154908060020154908060030154908060040154908060050154905086565b3373ffffffffffffffffffffffffffffffffffffffff166007600085815260200190815260200160002060009054906101000a900473ffffffffffffffffffffffffffffffffffffffff1673ffffffffffffffffffffffffffffffffffffffff1614610e2e576040517f08c379a0000000000000000000000000000000000000000000000000000000008152600401610e2590611dc9565b60405180910390fd5b62093a80600860008581526020019081526020016000205442610e519190611e18565b11610e91576040517f08c379a0000000000000000000000000000000000000000000000000000000008152600401610e88906122f0565b60405180910390fd5b4260086000858152602001908152602001600020819055506040518060c001604052808373ffffffffffffffffffffffffffffffffffffffff16815260200182815260200142815260200160008152602001606481526020016001815250600b600085815260200190815260200160002060008201518160000160006101000a81548173ffffffffffffffffffffffffffffffffffffffff021916908373ffffffffffffffffffffffffffffffffffffffff1602179055506020820151816001015560408201518160020155606082015181600301556080820151816004015560a0820151816005015590505082600a60008473ffffffffffffffffffffffffffffffffffffffff1673ffffffffffffffffffffffffffffffffffffffff168152602001908152602001600020600083815260200190815260200160002081905550505050565b60096020528060005260406000206000915090505481565b60045481565b3373ffffffffffffffffffffffffffffffffffffffff16600b600084815260200190815260200160002060000160009054906101000a900473ffffffffffffffffffffffffffffffffffffffff1673ffffffffffffffffffffffffffffffffffffffff16636352211e600b6000868152602001908152602001600020600101546040518263ffffffff1660e01b81526004016110929190611aea565b602060405180830381865afa1580156110af573d6000803e3d6000fd5b505050506040513d601f19601f820116820180604052508101906110d39190612325565b73ffffffffffffffffffffffffffffffffffffffff1614611129576040517f08c379a0000000000000000000000000000000000000000000000000000000008152600401611120906123c4565b60405180910390fd5b6000600b60008381526020019081526020016000206003015403611182576040517f08c379a000000000000000000000000000000000000000000000000000000000815260040161117990612430565b60405180910390fd5b5050565b60035481565b611194611583565b73ffffffffffffffffffffffffffffffffffffffff166111b26109c7565b73ffffffffffffffffffffffffffffffffffffffff1614611208576040517f08c379a00000000000000000000000000000000000000000000000000000000081526004016111ff906121f2565b60405180910390fd5b600073ffffffffffffffffffffffffffffffffffffffff168173ffffffffffffffffffffffffffffffffffffffff1603611277576040517f08c379a000000000000000000000000000000000000000000000000000000000815260040161126e906124c2565b60405180910390fd5b6112808161158b565b50565b3373ffffffffffffffffffffffffffffffffffffffff16600b600084815260200190815260200160002060000160009054906101000a900473ffffffffffffffffffffffffffffffffffffffff1673ffffffffffffffffffffffffffffffffffffffff16636352211e600b6000868152602001908152602001600020600101546040518263ffffffff1660e01b815260040161131f9190611aea565b602060405180830381865afa15801561133c573d6000803e3d6000fd5b505050506040513d601f19601f820116820180604052508101906113609190612325565b73ffffffffffffffffffffffffffffffffffffffff16146113b6576040517f08c379a00000000000000000000000000000000000000000000000000000000081526004016113ad906123c4565b60405180910390fd5b6000600b6000838152602001908152602001600020600301541461140f576040517f08c379a00000000000000000000000000000000000000000000000000000000081526004016114069061252e565b60405180910390fd5b6000600b60008481526020019081526020016000206003015414611468576040517f08c379a000000000000000000000000000000000000000000000000000000000815260040161145f9061259a565b60405180910390fd5b81600b60008381526020019081526020016000206003018190555080600b60008481526020019081526020016000206003018190555042600b60008481526020019081526020016000206002018190555042600b6000838152602001908152602001600020600201819055507f2e1fd8232cb44639153bc4e1cbe1c0fa3f61ea62b0b5dcd32aa5c2772d4e9b6782826040516115059291906125ba565b60405180910390a15050565b80600560008282546115239190611f24565b9250508190555080600660003373ffffffffffffffffffffffffffffffffffffffff1673ffffffffffffffffffffffffffffffffffffffff16815260200190815260200160002060008282546115799190611f24565b9250508190555050565b600033905090565b6000600160009054906101000a900473ffffffffffffffffffffffffffffffffffffffff16905081600160006101000a81548173ffffffffffffffffffffffffffffffffffffffff021916908373ffffffffffffffffffffffffffffffffffffffff1602179055508173ffffffffffffffffffffffffffffffffffffffff168173ffffffffffffffffffffffffffffffffffffffff167f8be0079c531659141344cd1fd0a4f28419497f9722a3daafe3b4186f6b6457e060405160405180910390a35050565b80600560008282546116639190611e18565b9250508190555080600660003373ffffffffffffffffffffffffffffffffffffffff1673ffffffffffffffffffffffffffffffffffffffff16815260200190815260200160002060008282546116b99190611e18565b9250508190555050565b6000604051905090565b600080fd5b600080fd5b6000819050919050565b6116ea816116d7565b81146116f557600080fd5b50565b600081359050611707816116e1565b92915050565b60008060408385031215611724576117236116cd565b5b6000611732858286016116f8565b9250506020611743858286016116f8565b9150509250929050565b600080fd5b6000601f19601f8301169050919050565b7f4e487b7100000000000000000000000000000000000000000000000000000000600052604160045260246000fd5b61179b82611752565b810181811067ffffffffffffffff821117156117ba576117b9611763565b5b80604052505050565b60006117cd6116c3565b90506117d98282611792565b919050565b600067ffffffffffffffff8211156117f9576117f8611763565b5b602082029050602081019050919050565b600080fd5b600061182261181d846117de565b6117c3565b905080838252602082019050602084028301858111156118455761184461180a565b5b835b8181101561186e578061185a88826116f8565b845260208401935050602081019050611847565b5050509392505050565b600082601f83011261188d5761188c61174d565b5b813561189d84826020860161180f565b91505092915050565b6000602082840312156118bc576118bb6116cd565b5b600082013567ffffffffffffffff8111156118da576118d96116d2565b5b6118e684828501611878565b91505092915050565b600073ffffffffffffffffffffffffffffffffffffffff82169050919050565b600061191a826118ef565b9050919050565b61192a8161190f565b811461193557600080fd5b50565b60008135905061194781611921565b92915050565b600080fd5b600067ffffffffffffffff82111561196d5761196c611763565b5b61197682611752565b9050602081019050919050565b82818337600083830152505050565b60006119a56119a084611952565b6117c3565b9050828152602081018484840111156119c1576119c061194d565b5b6119cc848285611983565b509392505050565b600082601f8301126119e9576119e861174d565b5b81356119f9848260208601611992565b91505092915050565b60008060008060808587031215611a1c57611a1b6116cd565b5b6000611a2a87828801611938565b9450506020611a3b87828801611938565b9350506040611a4c878288016116f8565b925050606085013567ffffffffffffffff811115611a6d57611a6c6116d2565b5b611a79878288016119d4565b91505092959194509250565b60007fffffffff0000000000000000000000000000000000000000000000000000000082169050919050565b611aba81611a85565b82525050565b6000602082019050611ad56000830184611ab1565b92915050565b611ae4816116d7565b82525050565b6000602082019050611aff6000830184611adb565b92915050565b60008060408385031215611b1c57611b1b6116cd565b5b6000611b2a85828601611938565b9250506020611b3b858286016116f8565b9150509250929050565b600060208284031215611b5b57611b5a6116cd565b5b6000611b6984828501611938565b91505092915050565b60008115159050919050565b611b8781611b72565b82525050565b6000602082019050611ba26000830184611b7e565b92915050565b6000819050919050565b6000611bcd611bc8611bc3846118ef565b611ba8565b6118ef565b9050919050565b6000611bdf82611bb2565b9050919050565b6000611bf182611bd4565b9050919050565b611c0181611be6565b82525050565b6000602082019050611c1c6000830184611bf8565b92915050565b600060208284031215611c3857611c376116cd565b5b6000611c46848285016116f8565b91505092915050565b611c588161190f565b82525050565b6000602082019050611c736000830184611c4f565b92915050565b6000819050919050565b611c8c81611c79565b82525050565b600060c082019050611ca76000830189611c4f565b611cb46020830188611adb565b611cc16040830187611adb565b611cce6060830186611adb565b611cdb6080830185611c83565b611ce860a0830184611adb565b979650505050505050565b600080600060608486031215611d0c57611d0b6116cd565b5b6000611d1a868287016116f8565b9350506020611d2b86828701611938565b9250506040611d3c868287016116f8565b9150509250925092565b600082825260208201905092915050565b7f5374616b696e673a204e6f7420746865207374616b6572206f6620746865204160008201527f6e696d6100000000000000000000000000000000000000000000000000000000602082015250565b6000611db3602483611d46565b9150611dbe82611d57565b604082019050919050565b60006020820190508181036000830152611de281611da6565b9050919050565b7f4e487b7100000000000000000000000000000000000000000000000000000000600052601160045260246000fd5b6000611e23826116d7565b9150611e2e836116d7565b925082821015611e4157611e40611de9565b5b828203905092915050565b7f4d757374207761697420666f72206e65787420626c657373696e670000000000600082015250565b6000611e82601b83611d46565b9150611e8d82611e4c565b602082019050919050565b60006020820190508181036000830152611eb181611e75565b9050919050565b7f54686520416e696d612073656c6563746564206973206e6f74207374616b6564600082015250565b6000611eee602083611d46565b9150611ef982611eb8565b602082019050919050565b60006020820190508181036000830152611f1d81611ee1565b9050919050565b6000611f2f826116d7565b9150611f3a836116d7565b9250827fffffffffffffffffffffffffffffffffffffffffffffffffffffffffffffffff03821115611f6f57611f6e611de9565b5b828201905092915050565b7f5265656e7472616e637947756172643a207265656e7472616e742063616c6c00600082015250565b6000611fb0601f83611d46565b9150611fbb82611f7a565b602082019050919050565b60006020820190508181036000830152611fdf81611fa3565b9050919050565b7f5374616b696e673a204e6f20746f6b656e4964732070726f7669646564000000600082015250565b600061201c601d83611d46565b915061202782611fe6565b602082019050919050565b6000602082019050818103600083015261204b8161200f565b9050919050565b7f4e487b7100000000000000000000000000000000000000000000000000000000600052603260045260246000fd5b60006060820190506120966000830186611c4f565b6120a36020830185611c4f565b6120b06040830184611adb565b949350505050565b600081519050919050565b600082825260208201905092915050565b6000819050602082019050919050565b6120ed816116d7565b82525050565b60006120ff83836120e4565b60208301905092915050565b6000602082019050919050565b6000612123826120b8565b61212d81856120c3565b9350612138836120d4565b8060005b8381101561216957815161215088826120f3565b975061215b8361210b565b92505060018101905061213c565b5085935050505092915050565b600060408201905061218b6000830185611adb565b818103602083015261219d8184612118565b90509392505050565b7f4f776e61626c653a2063616c6c6572206973206e6f7420746865206f776e6572600082015250565b60006121dc602083611d46565b91506121e7826121a6565b602082019050919050565b6000602082019050818103600083015261220b816121cf565b9050919050565b7f5374616b696e673a204e6f7420746865207374616b6572206f6620746865207460008201527f6f6b656e00000000000000000000000000000000000000000000000000000000602082015250565b600061226e602483611d46565b915061227982612212565b604082019050919050565b6000602082019050818103600083015261229d81612261565b9050919050565b7f4d757374207761697420666f72206e65787420696e7669746500000000000000600082015250565b60006122da601983611d46565b91506122e5826122a4565b602082019050919050565b60006020820190508181036000830152612309816122cd565b9050919050565b60008151905061231f81611921565b92915050565b60006020828403121561233b5761233a6116cd565b5b600061234984828501612310565b91505092915050565b7f596f7520617265206e6f7420696e20706f7373657373696f6e206f662073656c60008201527f6563746564206368616d70696f6e000000000000000000000000000000000000602082015250565b60006123ae602e83611d46565b91506123b982612352565b604082019050919050565b600060208201905081810360008301526123dd816123a1565b9050919050565b7f596f75277265206e6f7420696e206120626174746c6500000000000000000000600082015250565b600061241a601683611d46565b9150612425826123e4565b602082019050919050565b600060208201905081810360008301526124498161240d565b9050919050565b7f4f776e61626c653a206e6577206f776e657220697320746865207a65726f206160008201527f6464726573730000000000000000000000000000000000000000000000000000602082015250565b60006124ac602683611d46565b91506124b782612450565b604082019050919050565b600060208201905081810360008301526124db8161249f565b9050919050565b7f54617267657420697320696e20626174746c6500000000000000000000000000600082015250565b6000612518601383611d46565b9150612523826124e2565b602082019050919050565b600060208201905081810360008301526125478161250b565b9050919050565b7f596f7527726520616c726561647920696e206120626174746c65000000000000600082015250565b6000612584601a83611d46565b915061258f8261254e565b602082019050919050565b600060208201905081810360008301526125b381612577565b9050919050565b60006040820190506125cf6000830185611adb565b6125dc6020830184611adb565b939250505056fea264697066735822122066a3a449479639306b94de8de2f541bb068f5159f6256cf5b940c8b3a246922164736f6c634300080d0033",
  "immutableReferences": {},
  "source": "// SPDX-License-Identifier: MIT\npragma solidity ^0.8.1;\n\n/******************************************************************************\\\n\n/******************************************************************************/\n\nimport \"@openzeppelin/contracts/token/ERC721/IERC721.sol\";\nimport \"@openzeppelin/contracts/token/ERC721/utils/ERC721Holder.sol\";\nimport \"@openzeppelin/contracts/security/ReentrancyGuard.sol\";\nimport \"@openzeppelin/contracts/security/Pausable.sol\";\nimport \"@openzeppelin/contracts/access/Ownable.sol\";\n\ncontract ERC721Staking is ERC721Holder, ReentrancyGuard, Ownable, Pausable {\n\n    /* ========== STATE VARIABLES ========== */\n\n    IERC721 public stakingToken;\n    uint256 public periodFinish = 0;\n    uint256 public lastUpdateTime;\n\n\n  /* ========== STRUCTS ========== */\n\n    struct champion {\n        address champCollection;\n        uint256 champID;\n        uint256 lastAction; //time \n\n        uint256 inBattleWith;\n        int256 hp;     // may use metadata\n        uint256 astralBlessings;  // may use metadata\n    }\n    uint256 public totalSupply;\n\n    // Mappings \n    mapping(address => uint256) public balances;\n    mapping(uint256 => address) public stakedAssets;\n\n    // Added Mappings \n    mapping(uint256 => uint256) public animaToLastInvite;\n    mapping(uint256 => uint256) public animaToLastBlessing;\n    mapping(address => mapping(uint256 => uint256)) public championsToAnima;\n\n    // struct mappings\n    mapping(uint256 => champion) public animaToChampStruct;\n\n    \n    constructor(address _stakingToken) {\n        stakingToken = IERC721(_stakingToken);\n    }\n\n   \n    \n\n    /* ========== MUTATIVE FUNCTIONS ========== */\n\n    /// @notice Stakes user's NFTs\n    /// @param tokenIds The tokenIds of the NFTs which will be staked\n    function stake(uint256[] memory tokenIds) external nonReentrant {\n        require(tokenIds.length != 0, \"Staking: No tokenIds provided\");\n\n        uint256 amount;\n        for (uint256 i = 0; i < tokenIds.length; i += 1) {\n            // Transfer user's NFTs to the staking contract\n            stakingToken.safeTransferFrom(msg.sender, address(this), tokenIds[i]);\n            // Increment the amount which will be staked\n            amount += 1;\n            // Save who is the staker/depositor of the token\n            stakedAssets[tokenIds[i]] = msg.sender;\n        }\n        _stake(amount);\n        emit Staked(msg.sender, amount, tokenIds);\n    }\n\n    /// @notice Withdraws staked user's NFTs\n    /// @param tokenIds The tokenIds of the NFTs which will be withdrawn\n    function withdraw(uint256[] memory tokenIds) public {\n        require(tokenIds.length != 0, \"Staking: No tokenIds provided\");\n\n        uint256 amount;\n        for (uint256 i = 0; i < tokenIds.length; i += 1) {\n            // Check if the user who withdraws is the owner\n            require(\n                stakedAssets[tokenIds[i]] == msg.sender,\n                \"Staking: Not the staker of the token\"\n            );\n            // Transfer NFTs back to the owner\n            stakingToken.safeTransferFrom(address(this), msg.sender, tokenIds[i]);\n            // Increment the amount which will be withdrawn\n            amount += 1;\n            // Cleanup stakedAssets for the current tokenId\n            stakedAssets[tokenIds[i]] = address(0);\n\n            // Cleanup Champions for the current tokenId\n            delete animaToChampStruct[tokenIds[i]];\n            \n        }\n        _withdraw(amount);\n\n        emit Withdrawn(msg.sender, amount, tokenIds);\n    }\n\n\n    function exit(uint256[] memory tokenIds) external {\n        withdraw(tokenIds);\n    }\n\n    function _stake(uint256 _amount) internal {\n        totalSupply += _amount;\n        balances[msg.sender] += _amount;\n    }\n\n    function _withdraw(uint256 _amount) internal {\n        totalSupply -= _amount;\n        balances[msg.sender] -= _amount;\n    }\n\n\n    function inviteChamp(uint256 _tokenId, address _champCollection, uint256 _champId ) public {\n        require(stakedAssets[_tokenId] == msg.sender,\"Staking: Not the staker of the Anima\");\n        require(block.timestamp - animaToLastInvite[_tokenId] > 1 weeks, \"Must wait for next invite\");\n\n        // updating mappings \n        animaToLastInvite[_tokenId] = block.timestamp;\n        animaToChampStruct[_tokenId] = champion(_champCollection, _champId, block.timestamp, 0, 100, 1); // this is fine as long as the anima has 1 champ at a time\n        championsToAnima[_champCollection][_champId] = _tokenId;\n    }\n\n    // This function may require Oraclize or Chainlink\n    function blessChamp(uint256 _tokenId, uint256 _targetId) public { \n        require(stakedAssets[_tokenId] == msg.sender,\"Staking: Not the staker of the Anima\");\n        require(block.timestamp - animaToLastBlessing[_tokenId] > 1 days, \"Must wait for next blessing\");\n        require(stakedAssets[_tokenId] != address(0), \"The Anima selected is not staked\");\n        animaToLastBlessing[_tokenId] = block.timestamp;\n        animaToChampStruct[_targetId].astralBlessings += 1; // This will later depend on the Anima's metadata.\n\n    }\n\n\n    // Testing performing action without staking NFT\n    function initiateBattleWith(uint256 _sponsoringAnima, uint256 _targetAnima) public { \n        require(\n            IERC721(\n                animaToChampStruct[_sponsoringAnima].champCollection)  // using ERC721 interface of champ's collection\n                .ownerOf( animaToChampStruct[_sponsoringAnima].champID) == msg.sender,  // checking msg sender against owner of champ ID\n            \"You are not in possession of selected champion\"\n        );\n        require(animaToChampStruct[_targetAnima].inBattleWith == 0, \"Target is in battle\");\n        require(animaToChampStruct[_sponsoringAnima].inBattleWith == 0, \"You're already in a battle\");\n\n        // change battle state\n        animaToChampStruct[_targetAnima].inBattleWith = _sponsoringAnima;\n        animaToChampStruct[_sponsoringAnima].inBattleWith = _targetAnima;\n        // update last action of champions so that \n        animaToChampStruct[_sponsoringAnima].lastAction = block.timestamp;\n        animaToChampStruct[_targetAnima].lastAction = block.timestamp;\n        \n        \n        emit BattleInitiates(\n            _sponsoringAnima,\n            _targetAnima // champ's id\n            );\n    }\n\n\n    function attack(uint256 _sponsoringAnima, uint256 _targetAnima) public {\n        require(\n            IERC721(\n                animaToChampStruct[_sponsoringAnima].champCollection)  // using ERC721 interface of champ's collection\n                .ownerOf( animaToChampStruct[_sponsoringAnima].champID) == msg.sender,  // checking msg sender against owner of champ ID\n            \"You are not in possession of selected champion\"\n        );\n        // require that Anima is in battle\n        require(animaToChampStruct[_targetAnima].inBattleWith != 0, \"You're not in a battle\"); \n\n        /* insert random component with if{} else{} to calculate compute variation of animaToChampStruct[].hp \n                        with animaToChampStruct[].astralBlessings as a parameter */\n\n        // once hp calculation is finneshed, check hp. If hp goes below zero --> delete animaToChampStruct[losingAnimaID] \n        // perform eventual compensatory action towards champion and (maybe) Sponsoring Anima\n        // consider having win-loss count an updating that\n    }\n\n    /* ========== EVENTS ========== */\n\n    event Staked(address indexed user, uint256 amount, uint256[] tokenIds);\n    event Withdrawn(address indexed user, uint256 amount, uint256[] tokenIds);\n    event InviteChamp(uint256 tokenId, address champCollection, uint256 champID);\n    event BattleInitiates(uint256 challenger, uint256 challenged);\n\n}",
  "sourcePath": "/home/rebus2/Desktop/solidity_learning/EtherArena/contracts/NFTStaking.sol",
  "compiler": {
    "name": "solc",
    "version": "0.8.13+commit.abaa5c0e.Emscripten.clang"
  },
  "schemaVersion": "3.4.7",
  "updatedAt": "2022-05-09T20:45:22.070Z",
  "devdoc": {
    "kind": "dev",
    "methods": {
      "onERC721Received(address,address,uint256,bytes)": {
        "details": "See {IERC721Receiver-onERC721Received}. Always returns `IERC721Receiver.onERC721Received.selector`."
      },
      "owner()": {
        "details": "Returns the address of the current owner."
      },
      "paused()": {
        "details": "Returns true if the contract is paused, and false otherwise."
      },
      "renounceOwnership()": {
        "details": "Leaves the contract without owner. It will not be possible to call `onlyOwner` functions anymore. Can only be called by the current owner. NOTE: Renouncing ownership will leave the contract without an owner, thereby removing any functionality that is only available to the owner."
      },
      "stake(uint256[])": {
        "params": {
          "tokenIds": "The tokenIds of the NFTs which will be staked"
        }
      },
      "transferOwnership(address)": {
        "details": "Transfers ownership of the contract to a new account (`newOwner`). Can only be called by the current owner."
      },
      "withdraw(uint256[])": {
        "params": {
          "tokenIds": "The tokenIds of the NFTs which will be withdrawn"
        }
      }
    },
    "version": 1
  },
  "userdoc": {
    "kind": "user",
    "methods": {
      "stake(uint256[])": {
        "notice": "Stakes user's NFTs"
      },
      "withdraw(uint256[])": {
        "notice": "Withdraws staked user's NFTs"
      }
    },
    "version": 1
  }
}