{
  "contractName": "Journey",
  "abi": [
    {
      "inputs": [
        {
          "internalType": "address",
          "name": "_player",
          "type": "address"
        }
      ],
      "name": "getNumberRealms",
      "outputs": [
        {
          "internalType": "uint256",
          "name": "",
          "type": "uint256"
        }
      ],
      "stateMutability": "view",
      "type": "function"
    }
  ],
  "bytecode": "0x608060405234801561001057600080fd5b50610161806100206000396000f3fe608060405234801561001057600080fd5b506004361061002b5760003560e01c806393ff8d1014610030575b600080fd5b61004a600480360381019061004591906100ca565b610060565b6040516100579190610110565b60405180910390f35b6000919050565b600080fd5b600073ffffffffffffffffffffffffffffffffffffffff82169050919050565b60006100978261006c565b9050919050565b6100a78161008c565b81146100b257600080fd5b50565b6000813590506100c48161009e565b92915050565b6000602082840312156100e0576100df610067565b5b60006100ee848285016100b5565b91505092915050565b6000819050919050565b61010a816100f7565b82525050565b60006020820190506101256000830184610101565b9291505056fea26469706673582212202f1775ba8a69d38bfbdabe5b6290b89caeb42825550317a3746cb6530da46f3164736f6c634300080d0033",
  "immutableReferences": {},
  "source": "// SPDX-License-Identifier: Unlicensed\npragma solidity ^0.8.10;\n\nimport \"@openzeppelin/contracts/token/ERC721/ERC721.sol\";\nimport \"@openzeppelin/contracts/access/Ownable.sol\";\nimport \"@openzeppelin/contracts/security/ReentrancyGuard.sol\";\nimport \"@openzeppelin/contracts/token/ERC721/extensions/ERC721Enumerable.sol\";\n\ncontract Journey {\n    function getNumberRealms(address _player) public view returns (uint256) {}\n}\n\ncontract AstralAnima is ERC721Enumerable, ReentrancyGuard, Ownable {\n    string public baseURI;\n    Journey _journey;\n\n    \n    string public PROVENANCE = \"\";\n    uint256 public lastId = 0;\n    uint256 public maxSupply = 700;\n    uint256 public discountPrice = 70000000000000000; // in wei, 0.07 ETH \n    uint256 public publicPrice = 150000000000000000; //0.15 ETH\n    \n    mapping(address=>bool) public lordsDiscountCollected;\n\n    constructor(address _journeyAddr) ERC721(\"Astral Anima\", \"AstralAnima\") {\n        _journey = Journey(_journeyAddr);\n    }\n\n    function withdraw() public onlyOwner {\n        uint256 balance = address(this).balance;\n        payable(msg.sender).transfer(balance);\n    }\n\n    function deposit() public payable onlyOwner {}\n\n    function setDiscountPrice(uint256 _discountPrice) public onlyOwner {\n        discountPrice = _discountPrice;\n    }\n\n    function setPublicPrice(uint256 _newPrice) public onlyOwner {\n        publicPrice = _newPrice;\n    }\n\n    function setMaxSupply(uint256 _newMax) public onlyOwner {\n        maxSupply = _newMax;\n    }\n\n    function setLastId(uint256 _newLastId) public onlyOwner {\n        lastId = _newLastId;\n    }\n\n     function _baseURI() internal view override returns (string memory) {\n        return baseURI;\n    }\n\n    function setBaseURI(string memory _newBaseURI) public onlyOwner {\n        baseURI = _newBaseURI;\n    }\n\n     function setProvenance(string memory _prov) public onlyOwner {\n        PROVENANCE = _prov;\n    }\n\n    function mintFromJourney() public payable nonReentrant {\n        require(lastId < maxSupply, \"Anima: Max Supply reached\");\n        require(_journey.getNumberRealms(msg.sender) > 0, \"Anima: No realms\");\n        require(msg.value >= discountPrice, \"Anima: Value < price\");\n        require(!lordsDiscountCollected[msg.sender], \"Anima: Already collected\");\n        _safeMint(msg.sender, lastId + 1);\n        lordsDiscountCollected[msg.sender] = true;\n\n        lastId++;\n    }\n\n    function mintPublic() public payable nonReentrant {\n        require(lastId < maxSupply, \"Anima: Max Supply reached\");\n        require(msg.value >= publicPrice, \"Anima: Value < price\");\n        _safeMint(msg.sender, lastId + 1);\n\n        lastId++;\n    }\n\n    function multiMint(uint256 _amount) public payable nonReentrant {\n        require((maxSupply - lastId) >= _amount, \"Anima: Max Supply reached\");\n        require(msg.value >= (publicPrice * _amount), \"Anima: Value < price\");\n        \n        for (uint256 i=0; i<_amount; i++) {\n            _safeMint(msg.sender, lastId + 1 + i);\n        }\n\n        lastId+=_amount;\n    }\n\n    function mintTo(address _receiver, uint256 _tokenId) public onlyOwner {\n        _safeMint(_receiver, _tokenId);\n    }\n}",
  "sourcePath": "/home/rebus2/Desktop/solidity_learning/EtherArena/contracts/AstralAnima.sol",
  "compiler": {
    "name": "solc",
    "version": "0.8.13+commit.abaa5c0e.Emscripten.clang"
  },
  "schemaVersion": "3.4.7",
  "updatedAt": "2022-05-09T22:20:48.283Z",
  "networkType": "ethereum",
  "devdoc": {
    "kind": "dev",
    "methods": {},
    "version": 1
  },
  "userdoc": {
    "kind": "user",
    "methods": {},
    "version": 1
  }
}